{
  "contractName": "PocketWalletFactory",
  "abi": [
    {
      "inputs": [],
      "stateMutability": "nonpayable",
      "type": "constructor"
    },
    {
      "inputs": [
        {
          "internalType": "address",
          "name": "controller",
          "type": "address"
        }
      ],
      "name": "setController",
      "outputs": [],
      "stateMutability": "nonpayable",
      "type": "function"
    },
    {
      "inputs": [
        {
          "internalType": "address",
          "name": "user",
          "type": "address"
        }
      ],
      "name": "setUser",
      "outputs": [],
      "stateMutability": "nonpayable",
      "type": "function"
    },
    {
      "inputs": [
        {
          "internalType": "address",
          "name": "user",
          "type": "address"
        }
      ],
      "name": "removeUser",
      "outputs": [],
      "stateMutability": "nonpayable",
      "type": "function"
    },
    {
      "inputs": [
        {
          "internalType": "address",
          "name": "user",
          "type": "address"
        }
      ],
      "name": "createPocketWallet",
      "outputs": [],
      "stateMutability": "nonpayable",
      "type": "function"
    },
    {
      "inputs": [
        {
          "internalType": "address",
          "name": "user",
          "type": "address"
        }
      ],
      "name": "getUserContractAddress",
      "outputs": [
        {
          "internalType": "address",
          "name": "",
          "type": "address"
        }
      ],
      "stateMutability": "view",
      "type": "function",
      "constant": true
    }
  ],
  "bytecode": "0x608060405234801561001057600080fd5b50611299806100206000396000f3fe608060405234801561001057600080fd5b50600436106100575760003560e01c8063858ced351461005c57806392eefe9b1461007857806398575188146100945780639888402e146100b0578063a6e497b6146100cc575b600080fd5b610076600480360381019061007191906104fe565b6100fc565b005b610092600480360381019061008d91906104fe565b6101df565b005b6100ae60048036038101906100a991906104fe565b6102c1565b005b6100ca60048036038101906100c591906104fe565b610388565b005b6100e660048036038101906100e191906104fe565b610425565b6040516100f3919061053a565b60405180910390f35b6000600260003373ffffffffffffffffffffffffffffffffffffffff1673ffffffffffffffffffffffffffffffffffffffff16815260200190815260200160002060009054906101000a900463ffffffff1663ffffffff161161015e57600080fd5b33600160008373ffffffffffffffffffffffffffffffffffffffff1673ffffffffffffffffffffffffffffffffffffffff16815260200190815260200160002060006101000a81548173ffffffffffffffffffffffffffffffffffffffff021916908373ffffffffffffffffffffffffffffffffffffffff16021790555050565b6000600260003373ffffffffffffffffffffffffffffffffffffffff1673ffffffffffffffffffffffffffffffffffffffff16815260200190815260200160002060009054906101000a900463ffffffff1663ffffffff161161024157600080fd5b336000808373ffffffffffffffffffffffffffffffffffffffff1673ffffffffffffffffffffffffffffffffffffffff16815260200190815260200160002060006101000a81548173ffffffffffffffffffffffffffffffffffffffff021916908373ffffffffffffffffffffffffffffffffffffffff16021790555050565b6000600260003373ffffffffffffffffffffffffffffffffffffffff1673ffffffffffffffffffffffffffffffffffffffff16815260200190815260200160002060009054906101000a900463ffffffff1663ffffffff161161032357600080fd5b600160008273ffffffffffffffffffffffffffffffffffffffff1673ffffffffffffffffffffffffffffffffffffffff16815260200190815260200160002060006101000a81549073ffffffffffffffffffffffffffffffffffffffff021916905550565b600033826040516103989061048e565b6103a3929190610555565b604051809103906000f0801580156103bf573d6000803e3d6000fd5b5090506001600260008373ffffffffffffffffffffffffffffffffffffffff1673ffffffffffffffffffffffffffffffffffffffff16815260200190815260200160002060006101000a81548163ffffffff021916908363ffffffff1602179055505050565b6000600160008373ffffffffffffffffffffffffffffffffffffffff1673ffffffffffffffffffffffffffffffffffffffff16815260200190815260200160002060009054906101000a900473ffffffffffffffffffffffffffffffffffffffff169050919050565b610ce58061057f83390190565b600080fd5b600073ffffffffffffffffffffffffffffffffffffffff82169050919050565b60006104cb826104a0565b9050919050565b6104db816104c0565b81146104e657600080fd5b50565b6000813590506104f8816104d2565b92915050565b6000602082840312156105145761051361049b565b5b6000610522848285016104e9565b91505092915050565b610534816104c0565b82525050565b600060208201905061054f600083018461052b565b92915050565b600060408201905061056a600083018561052b565b610577602083018461052b565b939250505056fe60806040523480156200001157600080fd5b5060405162000ce538038062000ce5833981810160405281019062000037919062000332565b336000806101000a81548173ffffffffffffffffffffffffffffffffffffffff021916908373ffffffffffffffffffffffffffffffffffffffff1602179055506200008882620000a160201b60201c565b6200009981620001f560201b60201c565b5050620003a7565b6001819080600181540180825580915050600190039060005260206000200160009091909190916101000a81548173ffffffffffffffffffffffffffffffffffffffff021916908373ffffffffffffffffffffffffffffffffffffffff1602179055506001600260008373ffffffffffffffffffffffffffffffffffffffff1673ffffffffffffffffffffffffffffffffffffffff16815260200190815260200160002060006101000a81548163ffffffff021916908363ffffffff16021790555060008054906101000a900473ffffffffffffffffffffffffffffffffffffffff1673ffffffffffffffffffffffffffffffffffffffff166392eefe9b826040518263ffffffff1660e01b8152600401620001be91906200038a565b600060405180830381600087803b158015620001d957600080fd5b505af1158015620001ee573d6000803e3d6000fd5b5050505050565b80600360006101000a81548173ffffffffffffffffffffffffffffffffffffffff021916908373ffffffffffffffffffffffffffffffffffffffff16021790555060008054906101000a900473ffffffffffffffffffffffffffffffffffffffff1673ffffffffffffffffffffffffffffffffffffffff1663858ced35826040518263ffffffff1660e01b81526004016200029191906200038a565b600060405180830381600087803b158015620002ac57600080fd5b505af1158015620002c1573d6000803e3d6000fd5b5050505050565b600080fd5b600073ffffffffffffffffffffffffffffffffffffffff82169050919050565b6000620002fa82620002cd565b9050919050565b6200030c81620002ed565b81146200031857600080fd5b50565b6000815190506200032c8162000301565b92915050565b600080604083850312156200034c576200034b620002c8565b5b60006200035c858286016200031b565b92505060206200036f858286016200031b565b9150509250929050565b6200038481620002ed565b82525050565b6000602082019050620003a1600083018462000379565b92915050565b61092e80620003b76000396000f3fe60806040526004361061002d5760003560e01c80634420e48614610039578063af7d6ca31461006257610034565b3661003457005b600080fd5b34801561004557600080fd5b50610060600480360381019061005b919061062d565b61008b565b005b34801561006e57600080fd5b5061008960048036038101906100849190610690565b61023b565b005b6001600260003373ffffffffffffffffffffffffffffffffffffffff1673ffffffffffffffffffffffffffffffffffffffff16815260200190815260200160002060009054906101000a900463ffffffff1663ffffffff1614610123576040517f08c379a000000000000000000000000000000000000000000000000000000000815260040161011a9061072d565b60405180910390fd5b600073ffffffffffffffffffffffffffffffffffffffff16600360009054906101000a900473ffffffffffffffffffffffffffffffffffffffff1673ffffffffffffffffffffffffffffffffffffffff16036102275760008054906101000a900473ffffffffffffffffffffffffffffffffffffffff1673ffffffffffffffffffffffffffffffffffffffff166398575188600360009054906101000a900473ffffffffffffffffffffffffffffffffffffffff166040518263ffffffff1660e01b81526004016101f4919061075c565b600060405180830381600087803b15801561020e57600080fd5b505af1158015610222573d6000803e3d6000fd5b505050505b61023081610390565b61023861045f565b50565b600360009054906101000a900473ffffffffffffffffffffffffffffffffffffffff1673ffffffffffffffffffffffffffffffffffffffff163373ffffffffffffffffffffffffffffffffffffffff16146102cb576040517f08c379a00000000000000000000000000000000000000000000000000000000081526004016102c2906107c3565b60405180910390fd5b4781106102d757600080fd5b60008273ffffffffffffffffffffffffffffffffffffffff16826040516102fd90610814565b60006040518083038185875af1925050503d806000811461033a576040519150601f19603f3d011682016040523d82523d6000602084013e61033f565b606091505b5050905080610383576040517f08c379a000000000000000000000000000000000000000000000000000000000815260040161037a90610875565b60405180910390fd5b61038b61045f565b505050565b80600360006101000a81548173ffffffffffffffffffffffffffffffffffffffff021916908373ffffffffffffffffffffffffffffffffffffffff16021790555060008054906101000a900473ffffffffffffffffffffffffffffffffffffffff1673ffffffffffffffffffffffffffffffffffffffff1663858ced35826040518263ffffffff1660e01b815260040161042a919061075c565b600060405180830381600087803b15801561044457600080fd5b505af1158015610458573d6000803e3d6000fd5b5050505050565b66071afd498d0000600360009054906101000a900473ffffffffffffffffffffffffffffffffffffffff1673ffffffffffffffffffffffffffffffffffffffff163110156105c8576000600360009054906101000a900473ffffffffffffffffffffffffffffffffffffffff1673ffffffffffffffffffffffffffffffffffffffff16316611c37937e080006104f591906108c4565b90506000600360009054906101000a900473ffffffffffffffffffffffffffffffffffffffff1673ffffffffffffffffffffffffffffffffffffffff168260405161053f90610814565b60006040518083038185875af1925050503d806000811461057c576040519150601f19603f3d011682016040523d82523d6000602084013e610581565b606091505b50509050806105c5576040517f08c379a00000000000000000000000000000000000000000000000000000000081526004016105bc90610875565b60405180910390fd5b50505b565b600080fd5b600073ffffffffffffffffffffffffffffffffffffffff82169050919050565b60006105fa826105cf565b9050919050565b61060a816105ef565b811461061557600080fd5b50565b60008135905061062781610601565b92915050565b600060208284031215610643576106426105ca565b5b600061065184828501610618565b91505092915050565b6000819050919050565b61066d8161065a565b811461067857600080fd5b50565b60008135905061068a81610664565b92915050565b600080604083850312156106a7576106a66105ca565b5b60006106b585828601610618565b92505060206106c68582860161067b565b9150509250929050565b600082825260208201905092915050565b7f4e6f7420636f6e74726f6c6c6572000000000000000000000000000000000000600082015250565b6000610717600e836106d0565b9150610722826106e1565b602082019050919050565b600060208201905081810360008301526107468161070a565b9050919050565b610756816105ef565b82525050565b6000602082019050610771600083018461074d565b92915050565b7f4e6f742075736572000000000000000000000000000000000000000000000000600082015250565b60006107ad6008836106d0565b91506107b882610777565b602082019050919050565b600060208201905081810360008301526107dc816107a0565b9050919050565b600081905092915050565b50565b60006107fe6000836107e3565b9150610809826107ee565b600082019050919050565b600061081f826107f1565b9150819050919050565b7f4661696c656420746f2073656e64204574686572000000000000000000000000600082015250565b600061085f6014836106d0565b915061086a82610829565b602082019050919050565b6000602082019050818103600083015261088e81610852565b9050919050565b7f4e487b7100000000000000000000000000000000000000000000000000000000600052601160045260246000fd5b60006108cf8261065a565b91506108da8361065a565b9250828210156108ed576108ec610895565b5b82820390509291505056fea26469706673582212201d29c74a3c980f97d3212a30dcf885b5adef478af0c8af6a16bdade936e8e92064736f6c634300080d0033a2646970667358221220639d02dde83cd688edf1d3268054703ca6fb518f64bcbc5f696f191cf24095fe64736f6c634300080d0033",
  "immutableReferences": {},
  "source": "// SPDX-License-Identifier: MIT\npragma solidity >=0.4.22 <0.9.0;\nimport \"./PocketWallet.sol\";\n\ncontract PocketWalletFactory {\n\n    mapping(address => address) private _controllersToContract;\n    mapping(address => address) private _usersToContract;\n    mapping(address => uint32) private _contractsMap;\n\n    constructor() {\n    }\n\n    function setController(address controller) external {\n        require(_contractsMap[msg.sender] > 0); // ensures the pocket wallet contract (= sender) has been created from this factory\n        _controllersToContract[controller] = msg.sender;\n    }\n\n    function setUser(address user) external {\n        require(_contractsMap[msg.sender] > 0); // ensures the pocket wallet contract (= sender) has been created from this factory\n        _usersToContract[user] = msg.sender;\n    }\n\n    function removeUser(address user) external {\n        require(_contractsMap[msg.sender] > 0); // ensures the pocket wallet contract (= sender) has been created from this factory\n        delete _usersToContract[user];\n    }\n\n    function createPocketWallet(address user) external {\n        PocketWallet wallet = new PocketWallet(msg.sender, user);\n        _contractsMap[address(wallet)] = 1;\n    }\n\n    function getUserContractAddress(address user) external view returns (address) {\n        return _usersToContract[user];\n    }\n}\n",
  "sourcePath": "/home/exploit/my/truffle/pocket-wallet/contracts/PocketWalletFactory.sol",
  "compiler": {
    "name": "solc",
    "version": "0.8.13+commit.abaa5c0e.Emscripten.clang"
  },
  "schemaVersion": "3.4.7",
  "updatedAt": "2022-06-20T14:03:13.894Z",
  "networkType": "ethereum",
  "devdoc": {
    "kind": "dev",
    "methods": {},
    "version": 1
  },
  "userdoc": {
    "kind": "user",
    "methods": {},
    "version": 1
  }
}