{
  "contractName": "PocketWalletFactory",
  "abi": [
    {
      "inputs": [],
      "stateMutability": "nonpayable",
      "type": "constructor"
    },
    {
      "inputs": [
        {
          "internalType": "address",
          "name": "controller",
          "type": "address"
        }
      ],
      "name": "setController",
      "outputs": [],
      "stateMutability": "nonpayable",
      "type": "function"
    },
    {
      "inputs": [
        {
          "internalType": "address",
          "name": "user",
          "type": "address"
        }
      ],
      "name": "setUser",
      "outputs": [],
      "stateMutability": "nonpayable",
      "type": "function"
    },
    {
      "inputs": [
        {
          "internalType": "address",
          "name": "user",
          "type": "address"
        }
      ],
      "name": "removeUser",
      "outputs": [],
      "stateMutability": "nonpayable",
      "type": "function"
    },
    {
      "inputs": [
        {
          "internalType": "address payable",
          "name": "user",
          "type": "address"
        }
      ],
      "name": "createPocketWallet",
      "outputs": [],
      "stateMutability": "payable",
      "type": "function",
      "payable": true
    },
    {
      "inputs": [
        {
          "internalType": "address",
          "name": "user",
          "type": "address"
        }
      ],
      "name": "getUserContractAddress",
      "outputs": [
        {
          "internalType": "address",
          "name": "",
          "type": "address"
        }
      ],
      "stateMutability": "view",
      "type": "function",
      "constant": true
    },
    {
      "inputs": [],
      "name": "getMyControlledContractAddress",
      "outputs": [
        {
          "internalType": "address",
          "name": "",
          "type": "address"
        }
      ],
      "stateMutability": "view",
      "type": "function",
      "constant": true
    }
  ],
  "bytecode": "0x608060405234801561001057600080fd5b50611d6d806100206000396000f3fe6080604052600436106200005c5760003560e01c806339526f601462000061578063858ced35146200009157806392eefe9b14620000bf5780639857518814620000ed5780639888402e146200011b578063a6e497b6146200013b575b600080fd5b3480156200006e57600080fd5b50620000796200017f565b60405162000088919062000777565b60405180910390f35b3480156200009e57600080fd5b50620000bd6004803603810190620000b79190620007ca565b620001e5565b005b348015620000cc57600080fd5b50620000eb6004803603810190620000e59190620007ca565b62000301565b005b348015620000fa57600080fd5b50620001196004803603810190620001139190620007ca565b6200041c565b005b62000139600480360381019062000133919062000841565b6200051c565b005b3480156200014857600080fd5b50620001676004803603810190620001619190620007ca565b620006bb565b60405162000176919062000777565b60405180910390f35b60008060003373ffffffffffffffffffffffffffffffffffffffff1673ffffffffffffffffffffffffffffffffffffffff16815260200190815260200160002060009054906101000a900473ffffffffffffffffffffffffffffffffffffffff16905090565b6000600260003373ffffffffffffffffffffffffffffffffffffffff1673ffffffffffffffffffffffffffffffffffffffff16815260200190815260200160002060009054906101000a900463ffffffff1663ffffffff161162000280576040517f08c379a00000000000000000000000000000000000000000000000000000000081526004016200027790620008fa565b60405180910390fd5b33600160008373ffffffffffffffffffffffffffffffffffffffff1673ffffffffffffffffffffffffffffffffffffffff16815260200190815260200160002060006101000a81548173ffffffffffffffffffffffffffffffffffffffff021916908373ffffffffffffffffffffffffffffffffffffffff16021790555050565b6000600260003373ffffffffffffffffffffffffffffffffffffffff1673ffffffffffffffffffffffffffffffffffffffff16815260200190815260200160002060009054906101000a900463ffffffff1663ffffffff16116200039c576040517f08c379a00000000000000000000000000000000000000000000000000000000081526004016200039390620008fa565b60405180910390fd5b336000808373ffffffffffffffffffffffffffffffffffffffff1673ffffffffffffffffffffffffffffffffffffffff16815260200190815260200160002060006101000a81548173ffffffffffffffffffffffffffffffffffffffff021916908373ffffffffffffffffffffffffffffffffffffffff16021790555050565b6000600260003373ffffffffffffffffffffffffffffffffffffffff1673ffffffffffffffffffffffffffffffffffffffff16815260200190815260200160002060009054906101000a900463ffffffff1663ffffffff1611620004b7576040517f08c379a0000000000000000000000000000000000000000000000000000000008152600401620004ae90620008fa565b60405180910390fd5b600160008273ffffffffffffffffffffffffffffffffffffffff1673ffffffffffffffffffffffffffffffffffffffff16815260200190815260200160002060006101000a81549073ffffffffffffffffffffffffffffffffffffffff021916905550565b60003433836040516200052f9062000724565b6200053c9291906200092d565b6040518091039082f09050801580156200055a573d6000803e3d6000fd5b5090506001600260008373ffffffffffffffffffffffffffffffffffffffff1673ffffffffffffffffffffffffffffffffffffffff16815260200190815260200160002060006101000a81548163ffffffff021916908363ffffffff160217905550806000803373ffffffffffffffffffffffffffffffffffffffff1673ffffffffffffffffffffffffffffffffffffffff16815260200190815260200160002060006101000a81548173ffffffffffffffffffffffffffffffffffffffff021916908373ffffffffffffffffffffffffffffffffffffffff16021790555080600160008473ffffffffffffffffffffffffffffffffffffffff1673ffffffffffffffffffffffffffffffffffffffff16815260200190815260200160002060006101000a81548173ffffffffffffffffffffffffffffffffffffffff021916908373ffffffffffffffffffffffffffffffffffffffff1602179055505050565b6000600160008373ffffffffffffffffffffffffffffffffffffffff1673ffffffffffffffffffffffffffffffffffffffff16815260200190815260200160002060009054906101000a900473ffffffffffffffffffffffffffffffffffffffff169050919050565b6113dd806200095b83390190565b600073ffffffffffffffffffffffffffffffffffffffff82169050919050565b60006200075f8262000732565b9050919050565b620007718162000752565b82525050565b60006020820190506200078e600083018462000766565b92915050565b600080fd5b620007a48162000752565b8114620007b057600080fd5b50565b600081359050620007c48162000799565b92915050565b600060208284031215620007e357620007e262000794565b5b6000620007f384828501620007b3565b91505092915050565b6000620008098262000732565b9050919050565b6200081b81620007fc565b81146200082757600080fd5b50565b6000813590506200083b8162000810565b92915050565b6000602082840312156200085a576200085962000794565b5b60006200086a848285016200082a565b91505092915050565b600082825260208201905092915050565b7f506f636b65742077616c6c6574206973206e6f7420726567697374657265642060008201527f696e20666163746f727900000000000000000000000000000000000000000000602082015250565b6000620008e2602a8362000873565b9150620008ef8262000884565b604082019050919050565b600060208201905081810360008301526200091581620008d3565b9050919050565b6200092781620007fc565b82525050565b600060408201905062000944600083018562000766565b6200095360208301846200091c565b939250505056fe6080604052604051620013dd380380620013dd833981810160405281019062000029919062000502565b336000806101000a81548173ffffffffffffffffffffffffffffffffffffffff021916908373ffffffffffffffffffffffffffffffffffffffff1602179055506200007c826001620000a760201b60201c565b6200008f8160016200020360201b60201c565b6200009f620002de60201b60201c565b505062000742565b6001829080600181540180825580915050600190039060005260206000200160009091909190916101000a81548173ffffffffffffffffffffffffffffffffffffffff021916908373ffffffffffffffffffffffffffffffffffffffff1602179055506001600260008473ffffffffffffffffffffffffffffffffffffffff1673ffffffffffffffffffffffffffffffffffffffff16815260200190815260200160002060006101000a81548163ffffffff021916908363ffffffff16021790555080620001ff5760008054906101000a900473ffffffffffffffffffffffffffffffffffffffff1673ffffffffffffffffffffffffffffffffffffffff166392eefe9b836040518263ffffffff1660e01b8152600401620001ca91906200055a565b600060405180830381600087803b158015620001e557600080fd5b505af1158015620001fa573d6000803e3d6000fd5b505050505b5050565b81600360006101000a81548173ffffffffffffffffffffffffffffffffffffffff021916908373ffffffffffffffffffffffffffffffffffffffff16021790555080620002da5760008054906101000a900473ffffffffffffffffffffffffffffffffffffffff1673ffffffffffffffffffffffffffffffffffffffff1663858ced35836040518263ffffffff1660e01b8152600401620002a59190620005e2565b600060405180830381600087803b158015620002c057600080fd5b505af1158015620002d5573d6000803e3d6000fd5b505050505b5050565b66071afd498d0000600360009054906101000a900473ffffffffffffffffffffffffffffffffffffffff1673ffffffffffffffffffffffffffffffffffffffff1631101562000451576000600360009054906101000a900473ffffffffffffffffffffffffffffffffffffffff1673ffffffffffffffffffffffffffffffffffffffff16316611c37937e0800062000377919062000638565b90506000600360009054906101000a900473ffffffffffffffffffffffffffffffffffffffff1673ffffffffffffffffffffffffffffffffffffffff1682604051620003c390620006a8565b60006040518083038185875af1925050503d806000811462000402576040519150601f19603f3d011682016040523d82523d6000602084013e62000407565b606091505b50509050806200044e576040517f08c379a0000000000000000000000000000000000000000000000000000000008152600401620004459062000720565b60405180910390fd5b50505b565b600080fd5b600073ffffffffffffffffffffffffffffffffffffffff82169050919050565b6000620004858262000458565b9050919050565b620004978162000478565b8114620004a357600080fd5b50565b600081519050620004b7816200048c565b92915050565b6000620004ca8262000458565b9050919050565b620004dc81620004bd565b8114620004e857600080fd5b50565b600081519050620004fc81620004d1565b92915050565b600080604083850312156200051c576200051b62000453565b5b60006200052c85828601620004a6565b92505060206200053f85828601620004eb565b9150509250929050565b620005548162000478565b82525050565b600060208201905062000571600083018462000549565b92915050565b6000819050919050565b6000620005a26200059c620005968462000458565b62000577565b62000458565b9050919050565b6000620005b68262000581565b9050919050565b6000620005ca82620005a9565b9050919050565b620005dc81620005bd565b82525050565b6000602082019050620005f96000830184620005d1565b92915050565b6000819050919050565b7f4e487b7100000000000000000000000000000000000000000000000000000000600052601160045260246000fd5b60006200064582620005ff565b91506200065283620005ff565b92508282101562000668576200066762000609565b5b828203905092915050565b600081905092915050565b50565b60006200069060008362000673565b91506200069d826200067e565b600082019050919050565b6000620006b58262000681565b9150819050919050565b600082825260208201905092915050565b7f4661696c656420746f2073656e64204574686572000000000000000000000000600082015250565b600062000708601483620006bf565b91506200071582620006d0565b602082019050919050565b600060208201905081810360008301526200073b81620006f9565b9050919050565b610c8b80620007526000396000f3fe6080604052600436106100435760003560e01c80634420e4861461004f578063832880e714610078578063af7d6ca3146100a3578063b4e8a6c4146100cc5761004a565b3661004a57005b600080fd5b34801561005b57600080fd5b50610076600480360381019061007191906107f2565b6100f7565b005b34801561008457600080fd5b5061008d6102a9565b60405161009a9190610840565b60405180910390f35b3480156100af57600080fd5b506100ca60048036038101906100c591906108bd565b61036b565b005b3480156100d857600080fd5b506100e16104c0565b6040516100ee91906109bb565b60405180910390f35b6001600260003373ffffffffffffffffffffffffffffffffffffffff1673ffffffffffffffffffffffffffffffffffffffff16815260200190815260200160002060009054906101000a900463ffffffff1663ffffffff161461018f576040517f08c379a000000000000000000000000000000000000000000000000000000000815260040161018690610a3a565b60405180910390fd5b600073ffffffffffffffffffffffffffffffffffffffff16600360009054906101000a900473ffffffffffffffffffffffffffffffffffffffff1673ffffffffffffffffffffffffffffffffffffffff16036102935760008054906101000a900473ffffffffffffffffffffffffffffffffffffffff1673ffffffffffffffffffffffffffffffffffffffff166398575188600360009054906101000a900473ffffffffffffffffffffffffffffffffffffffff166040518263ffffffff1660e01b81526004016102609190610ab9565b600060405180830381600087803b15801561027a57600080fd5b505af115801561028e573d6000803e3d6000fd5b505050505b61029e81600061054e565b6102a6610624565b50565b60006001600260003373ffffffffffffffffffffffffffffffffffffffff1673ffffffffffffffffffffffffffffffffffffffff16815260200190815260200160002060009054906101000a900463ffffffff1663ffffffff1614610343576040517f08c379a000000000000000000000000000000000000000000000000000000000815260040161033a90610a3a565b60405180910390fd5b600360009054906101000a900473ffffffffffffffffffffffffffffffffffffffff16905090565b600360009054906101000a900473ffffffffffffffffffffffffffffffffffffffff1673ffffffffffffffffffffffffffffffffffffffff163373ffffffffffffffffffffffffffffffffffffffff16146103fb576040517f08c379a00000000000000000000000000000000000000000000000000000000081526004016103f290610b20565b60405180910390fd5b47811061040757600080fd5b60008273ffffffffffffffffffffffffffffffffffffffff168260405161042d90610b71565b60006040518083038185875af1925050503d806000811461046a576040519150601f19603f3d011682016040523d82523d6000602084013e61046f565b606091505b50509050806104b3576040517f08c379a00000000000000000000000000000000000000000000000000000000081526004016104aa90610bd2565b60405180910390fd5b6104bb610624565b505050565b6060600180548060200260200160405190810160405280929190818152602001828054801561054457602002820191906000526020600020905b8160009054906101000a900473ffffffffffffffffffffffffffffffffffffffff1673ffffffffffffffffffffffffffffffffffffffff16815260200190600101908083116104fa575b5050505050905090565b81600360006101000a81548173ffffffffffffffffffffffffffffffffffffffff021916908373ffffffffffffffffffffffffffffffffffffffff160217905550806106205760008054906101000a900473ffffffffffffffffffffffffffffffffffffffff1673ffffffffffffffffffffffffffffffffffffffff1663858ced35836040518263ffffffff1660e01b81526004016105ed9190610ab9565b600060405180830381600087803b15801561060757600080fd5b505af115801561061b573d6000803e3d6000fd5b505050505b5050565b66071afd498d0000600360009054906101000a900473ffffffffffffffffffffffffffffffffffffffff1673ffffffffffffffffffffffffffffffffffffffff1631101561078d576000600360009054906101000a900473ffffffffffffffffffffffffffffffffffffffff1673ffffffffffffffffffffffffffffffffffffffff16316611c37937e080006106ba9190610c21565b90506000600360009054906101000a900473ffffffffffffffffffffffffffffffffffffffff1673ffffffffffffffffffffffffffffffffffffffff168260405161070490610b71565b60006040518083038185875af1925050503d8060008114610741576040519150601f19603f3d011682016040523d82523d6000602084013e610746565b606091505b505090508061078a576040517f08c379a000000000000000000000000000000000000000000000000000000000815260040161078190610bd2565b60405180910390fd5b50505b565b600080fd5b600073ffffffffffffffffffffffffffffffffffffffff82169050919050565b60006107bf82610794565b9050919050565b6107cf816107b4565b81146107da57600080fd5b50565b6000813590506107ec816107c6565b92915050565b6000602082840312156108085761080761078f565b5b6000610816848285016107dd565b91505092915050565b600061082a82610794565b9050919050565b61083a8161081f565b82525050565b60006020820190506108556000830184610831565b92915050565b6108648161081f565b811461086f57600080fd5b50565b6000813590506108818161085b565b92915050565b6000819050919050565b61089a81610887565b81146108a557600080fd5b50565b6000813590506108b781610891565b92915050565b600080604083850312156108d4576108d361078f565b5b60006108e285828601610872565b92505060206108f3858286016108a8565b9150509250929050565b600081519050919050565b600082825260208201905092915050565b6000819050602082019050919050565b6109328161081f565b82525050565b60006109448383610929565b60208301905092915050565b6000602082019050919050565b6000610968826108fd565b6109728185610908565b935061097d83610919565b8060005b838110156109ae5781516109958882610938565b97506109a083610950565b925050600181019050610981565b5085935050505092915050565b600060208201905081810360008301526109d5818461095d565b905092915050565b600082825260208201905092915050565b7f4e6f7420636f6e74726f6c6c6572000000000000000000000000000000000000600082015250565b6000610a24600e836109dd565b9150610a2f826109ee565b602082019050919050565b60006020820190508181036000830152610a5381610a17565b9050919050565b6000819050919050565b6000610a7f610a7a610a7584610794565b610a5a565b610794565b9050919050565b6000610a9182610a64565b9050919050565b6000610aa382610a86565b9050919050565b610ab381610a98565b82525050565b6000602082019050610ace6000830184610aaa565b92915050565b7f4e6f742075736572000000000000000000000000000000000000000000000000600082015250565b6000610b0a6008836109dd565b9150610b1582610ad4565b602082019050919050565b60006020820190508181036000830152610b3981610afd565b9050919050565b600081905092915050565b50565b6000610b5b600083610b40565b9150610b6682610b4b565b600082019050919050565b6000610b7c82610b4e565b9150819050919050565b7f4661696c656420746f2073656e64204574686572000000000000000000000000600082015250565b6000610bbc6014836109dd565b9150610bc782610b86565b602082019050919050565b60006020820190508181036000830152610beb81610baf565b9050919050565b7f4e487b7100000000000000000000000000000000000000000000000000000000600052601160045260246000fd5b6000610c2c82610887565b9150610c3783610887565b925082821015610c4a57610c49610bf2565b5b82820390509291505056fea2646970667358221220ed66917f7b77f1842fc431b2a49f9a0cd8ae9dd05e328acec5c8a0c991ef713c64736f6c634300080d0033a26469706673582212203eee5d43620e8fbb46aa726ee88cb281bb44c45526dbd511779e6c6ca390e45e64736f6c634300080d0033",
  "immutableReferences": {},
  "source": "// SPDX-License-Identifier: MIT\npragma solidity >=0.4.22 <0.9.0;\nimport \"./PocketWallet.sol\";\n\ncontract PocketWalletFactory {\n\n    mapping(address => address) private _controllersToContract;\n    mapping(address => address) private _usersToContract;\n    mapping(address => uint32) private _contractsMap;\n\n    constructor() {\n    }\n\n    function setController(address controller) external {\n        require(_contractsMap[msg.sender] > 0, \"Pocket wallet is not registered in factory\"); // ensures the pocket wallet contract (= sender) has been created from this factory\n        _controllersToContract[controller] = msg.sender;\n    }\n\n    function setUser(address user) external {\n        require(_contractsMap[msg.sender] > 0, \"Pocket wallet is not registered in factory\"); // ensures the pocket wallet contract (= sender) has been created from this factory\n        _usersToContract[user] = msg.sender;\n    }\n\n    function removeUser(address user) external {\n        require(_contractsMap[msg.sender] > 0, \"Pocket wallet is not registered in factory\"); // ensures the pocket wallet contract (= sender) has been created from this factory\n        delete _usersToContract[user];\n    }\n\n    function createPocketWallet(address payable user) external payable {\n        PocketWallet wallet = (new PocketWallet){value: msg.value}(msg.sender, user);\n        _contractsMap[address(wallet)] = 1;\n        _controllersToContract[msg.sender] = address(wallet);\n        _usersToContract[user] = address(wallet); \n    }\n\n    function getUserContractAddress(address user) external view returns (address) {\n        return _usersToContract[user];\n    }\n\n    function getMyControlledContractAddress() external view returns (address) {\n        return _controllersToContract[msg.sender];\n    }\n}\n",
  "sourcePath": "/home/exploit/my/truffle/pocket-wallet/contracts/PocketWalletFactory.sol",
  "compiler": {
    "name": "solc",
    "version": "0.8.13+commit.abaa5c0e.Emscripten.clang"
  },
  "schemaVersion": "3.4.7",
  "updatedAt": "2022-06-22T12:49:55.351Z",
  "networkType": "ethereum",
  "devdoc": {
    "kind": "dev",
    "methods": {},
    "version": 1
  },
  "userdoc": {
    "kind": "user",
    "methods": {},
    "version": 1
  }
}