{
  "contractName": "PocketWallet",
  "abi": [
    {
      "inputs": [
        {
          "internalType": "address",
          "name": "controller",
          "type": "address"
        },
        {
          "internalType": "address payable",
          "name": "user",
          "type": "address"
        }
      ],
      "stateMutability": "payable",
      "type": "constructor"
    },
    {
      "stateMutability": "payable",
      "type": "receive"
    },
    {
      "inputs": [
        {
          "internalType": "address payable",
          "name": "user",
          "type": "address"
        }
      ],
      "name": "register",
      "outputs": [],
      "stateMutability": "nonpayable",
      "type": "function"
    },
    {
      "inputs": [
        {
          "internalType": "address",
          "name": "receipient",
          "type": "address"
        },
        {
          "internalType": "string",
          "name": "label",
          "type": "string"
        }
      ],
      "name": "addReceipient",
      "outputs": [],
      "stateMutability": "nonpayable",
      "type": "function"
    },
    {
      "inputs": [
        {
          "internalType": "address",
          "name": "receipient",
          "type": "address"
        }
      ],
      "name": "removeReceipient",
      "outputs": [],
      "stateMutability": "nonpayable",
      "type": "function"
    },
    {
      "inputs": [],
      "name": "listReceipients",
      "outputs": [
        {
          "components": [
            {
              "internalType": "address",
              "name": "receipient",
              "type": "address"
            },
            {
              "internalType": "string",
              "name": "label",
              "type": "string"
            }
          ],
          "internalType": "struct PocketWalletReceipient[]",
          "name": "",
          "type": "tuple[]"
        }
      ],
      "stateMutability": "view",
      "type": "function"
    },
    {
      "inputs": [],
      "name": "getUser",
      "outputs": [
        {
          "internalType": "address",
          "name": "",
          "type": "address"
        }
      ],
      "stateMutability": "view",
      "type": "function"
    },
    {
      "inputs": [],
      "name": "getControllers",
      "outputs": [
        {
          "internalType": "address[]",
          "name": "",
          "type": "address[]"
        }
      ],
      "stateMutability": "view",
      "type": "function"
    },
    {
      "inputs": [
        {
          "internalType": "address",
          "name": "receipient",
          "type": "address"
        },
        {
          "internalType": "uint256",
          "name": "amount",
          "type": "uint256"
        }
      ],
      "name": "spend",
      "outputs": [],
      "stateMutability": "nonpayable",
      "type": "function"
    }
  ],
  "bytecode": "0x608060405260405162002954380380620029548339818101604052810190620000299190620008ad565b336000806101000a81548173ffffffffffffffffffffffffffffffffffffffff021916908373ffffffffffffffffffffffffffffffffffffffff1602179055506200007c826001620000ee60201b60201c565b6200008f8160016200024a60201b60201c565b6200009f6200032560201b60201c565b620000e6826040518060400160405280600581526020017f44616464790000000000000000000000000000000000000000000000000000008152506200049a60201b60201c565b505062000c35565b6001829080600181540180825580915050600190039060005260206000200160009091909190916101000a81548173ffffffffffffffffffffffffffffffffffffffff021916908373ffffffffffffffffffffffffffffffffffffffff1602179055506001600260008473ffffffffffffffffffffffffffffffffffffffff1673ffffffffffffffffffffffffffffffffffffffff16815260200190815260200160002060006101000a81548163ffffffff021916908363ffffffff16021790555080620002465760008054906101000a900473ffffffffffffffffffffffffffffffffffffffff1673ffffffffffffffffffffffffffffffffffffffff166392eefe9b836040518263ffffffff1660e01b815260040162000211919062000905565b600060405180830381600087803b1580156200022c57600080fd5b505af115801562000241573d6000803e3d6000fd5b505050505b5050565b81600360006101000a81548173ffffffffffffffffffffffffffffffffffffffff021916908373ffffffffffffffffffffffffffffffffffffffff16021790555080620003215760008054906101000a900473ffffffffffffffffffffffffffffffffffffffff1673ffffffffffffffffffffffffffffffffffffffff1663858ced35836040518263ffffffff1660e01b8152600401620002ec91906200098d565b600060405180830381600087803b1580156200030757600080fd5b505af11580156200031c573d6000803e3d6000fd5b505050505b5050565b66071afd498d0000600360009054906101000a900473ffffffffffffffffffffffffffffffffffffffff1673ffffffffffffffffffffffffffffffffffffffff1631101562000498576000600360009054906101000a900473ffffffffffffffffffffffffffffffffffffffff1673ffffffffffffffffffffffffffffffffffffffff16316611c37937e08000620003be9190620009e3565b90506000600360009054906101000a900473ffffffffffffffffffffffffffffffffffffffff1673ffffffffffffffffffffffffffffffffffffffff16826040516200040a9062000a53565b60006040518083038185875af1925050503d806000811462000449576040519150601f19603f3d011682016040523d82523d6000602084013e6200044e565b606091505b505090508062000495576040517f08c379a00000000000000000000000000000000000000000000000000000000081526004016200048c9062000acb565b60405180910390fd5b50505b565b600360009054906101000a900473ffffffffffffffffffffffffffffffffffffffff1673ffffffffffffffffffffffffffffffffffffffff163373ffffffffffffffffffffffffffffffffffffffff1614806200054c57506001600260003373ffffffffffffffffffffffffffffffffffffffff1673ffffffffffffffffffffffffffffffffffffffff16815260200190815260200160002060009054906101000a900463ffffffff1663ffffffff16145b6200058e576040517f08c379a0000000000000000000000000000000000000000000000000000000008152600401620005859062000b3d565b60405180910390fd5b6000600560008473ffffffffffffffffffffffffffffffffffffffff1673ffffffffffffffffffffffffffffffffffffffff16815260200190815260200160002060009054906101000a900463ffffffff1663ffffffff161462000629576040517f08c379a0000000000000000000000000000000000000000000000000000000008152600401620006209062000baf565b60405180910390fd5b600460405180604001604052808473ffffffffffffffffffffffffffffffffffffffff16815260200183815250908060018154018082558091505060019003906000526020600020906002020160009091909190915060008201518160000160006101000a81548173ffffffffffffffffffffffffffffffffffffffff021916908373ffffffffffffffffffffffffffffffffffffffff1602179055506020820151816001019080519060200190620006e49291906200074e565b505050600480549050600560008473ffffffffffffffffffffffffffffffffffffffff1673ffffffffffffffffffffffffffffffffffffffff16815260200190815260200160002060006101000a81548163ffffffff021916908363ffffffff1602179055505050565b8280546200075c9062000c00565b90600052602060002090601f016020900481019282620007805760008555620007cc565b82601f106200079b57805160ff1916838001178555620007cc565b82800160010185558215620007cc579182015b82811115620007cb578251825591602001919060010190620007ae565b5b509050620007db9190620007df565b5090565b5b80821115620007fa576000816000905550600101620007e0565b5090565b600080fd5b600073ffffffffffffffffffffffffffffffffffffffff82169050919050565b6000620008308262000803565b9050919050565b620008428162000823565b81146200084e57600080fd5b50565b600081519050620008628162000837565b92915050565b6000620008758262000803565b9050919050565b620008878162000868565b81146200089357600080fd5b50565b600081519050620008a7816200087c565b92915050565b60008060408385031215620008c757620008c6620007fe565b5b6000620008d78582860162000851565b9250506020620008ea8582860162000896565b9150509250929050565b620008ff8162000823565b82525050565b60006020820190506200091c6000830184620008f4565b92915050565b6000819050919050565b60006200094d62000947620009418462000803565b62000922565b62000803565b9050919050565b600062000961826200092c565b9050919050565b6000620009758262000954565b9050919050565b620009878162000968565b82525050565b6000602082019050620009a460008301846200097c565b92915050565b6000819050919050565b7f4e487b7100000000000000000000000000000000000000000000000000000000600052601160045260246000fd5b6000620009f082620009aa565b9150620009fd83620009aa565b92508282101562000a135762000a12620009b4565b5b828203905092915050565b600081905092915050565b50565b600062000a3b60008362000a1e565b915062000a488262000a29565b600082019050919050565b600062000a608262000a2c565b9150819050919050565b600082825260208201905092915050565b7f4661696c656420746f2073656e64204574686572000000000000000000000000600082015250565b600062000ab360148362000a6a565b915062000ac08262000a7b565b602082019050919050565b6000602082019050818103600083015262000ae68162000aa4565b9050919050565b7f4e6f742075736572206e65697468657220636f6e74726f6c6c65720000000000600082015250565b600062000b25601b8362000a6a565b915062000b328262000aed565b602082019050919050565b6000602082019050818103600083015262000b588162000b16565b9050919050565b7f52656365697069656e7420616c7265616479206578697374696e670000000000600082015250565b600062000b97601b8362000a6a565b915062000ba48262000b5f565b602082019050919050565b6000602082019050818103600083015262000bca8162000b88565b9050919050565b7f4e487b7100000000000000000000000000000000000000000000000000000000600052602260045260246000fd5b6000600282049050600182168062000c1957607f821691505b60208210810362000c2f5762000c2e62000bd1565b5b50919050565b611d0f8062000c456000396000f3fe6080604052600436106100745760003560e01c8063832880e71161004e578063832880e7146100fd578063af7d6ca314610128578063b4e8a6c414610151578063ef6a7c1d1461017c5761007b565b80634420e4861461008057806359ba1394146100a95780635f4ad480146100d45761007b565b3661007b57005b600080fd5b34801561008c57600080fd5b506100a760048036038101906100a291906112b8565b6101a5565b005b3480156100b557600080fd5b506100be610357565b6040516100cb919061149e565b60405180910390f35b3480156100e057600080fd5b506100fb60048036038101906100f69190611621565b61058e565b005b34801561010957600080fd5b50610112610839565b60405161011f919061168c565b60405180910390f35b34801561013457600080fd5b5061014f600480360381019061014a91906116dd565b610863565b005b34801561015d57600080fd5b506101666109b8565b60405161017391906117cc565b60405180910390f35b34801561018857600080fd5b506101a3600480360381019061019e91906117ee565b610a46565b005b6001600260003373ffffffffffffffffffffffffffffffffffffffff1673ffffffffffffffffffffffffffffffffffffffff16815260200190815260200160002060009054906101000a900463ffffffff1663ffffffff161461023d576040517f08c379a000000000000000000000000000000000000000000000000000000000815260040161023490611878565b60405180910390fd5b600073ffffffffffffffffffffffffffffffffffffffff16600360009054906101000a900473ffffffffffffffffffffffffffffffffffffffff1673ffffffffffffffffffffffffffffffffffffffff16036103415760008054906101000a900473ffffffffffffffffffffffffffffffffffffffff1673ffffffffffffffffffffffffffffffffffffffff166398575188600360009054906101000a900473ffffffffffffffffffffffffffffffffffffffff166040518263ffffffff1660e01b815260040161030e91906118f7565b600060405180830381600087803b15801561032857600080fd5b505af115801561033c573d6000803e3d6000fd5b505050505b61034c816000610f22565b610354610ff8565b50565b6060600360009054906101000a900473ffffffffffffffffffffffffffffffffffffffff1673ffffffffffffffffffffffffffffffffffffffff163373ffffffffffffffffffffffffffffffffffffffff16148061040a57506001600260003373ffffffffffffffffffffffffffffffffffffffff1673ffffffffffffffffffffffffffffffffffffffff16815260200190815260200160002060009054906101000a900463ffffffff1663ffffffff16145b610449576040517f08c379a00000000000000000000000000000000000000000000000000000000081526004016104409061195e565b60405180910390fd5b6004805480602002602001604051908101604052809291908181526020016000905b8282101561058557838290600052602060002090600202016040518060400160405290816000820160009054906101000a900473ffffffffffffffffffffffffffffffffffffffff1673ffffffffffffffffffffffffffffffffffffffff1673ffffffffffffffffffffffffffffffffffffffff1681526020016001820180546104f4906119ad565b80601f0160208091040260200160405190810160405280929190818152602001828054610520906119ad565b801561056d5780601f106105425761010080835404028352916020019161056d565b820191906000526020600020905b81548152906001019060200180831161055057829003601f168201915b5050505050815250508152602001906001019061046b565b50505050905090565b600360009054906101000a900473ffffffffffffffffffffffffffffffffffffffff1673ffffffffffffffffffffffffffffffffffffffff163373ffffffffffffffffffffffffffffffffffffffff16148061063f57506001600260003373ffffffffffffffffffffffffffffffffffffffff1673ffffffffffffffffffffffffffffffffffffffff16815260200190815260200160002060009054906101000a900463ffffffff1663ffffffff16145b61067e576040517f08c379a00000000000000000000000000000000000000000000000000000000081526004016106759061195e565b60405180910390fd5b6000600560008473ffffffffffffffffffffffffffffffffffffffff1673ffffffffffffffffffffffffffffffffffffffff16815260200190815260200160002060009054906101000a900463ffffffff1663ffffffff1614610716576040517f08c379a000000000000000000000000000000000000000000000000000000000815260040161070d90611a2a565b60405180910390fd5b600460405180604001604052808473ffffffffffffffffffffffffffffffffffffffff16815260200183815250908060018154018082558091505060019003906000526020600020906002020160009091909190915060008201518160000160006101000a81548173ffffffffffffffffffffffffffffffffffffffff021916908373ffffffffffffffffffffffffffffffffffffffff16021790555060208201518160010190805190602001906107cf929190611163565b505050600480549050600560008473ffffffffffffffffffffffffffffffffffffffff1673ffffffffffffffffffffffffffffffffffffffff16815260200190815260200160002060006101000a81548163ffffffff021916908363ffffffff1602179055505050565b6000600360009054906101000a900473ffffffffffffffffffffffffffffffffffffffff16905090565b600360009054906101000a900473ffffffffffffffffffffffffffffffffffffffff1673ffffffffffffffffffffffffffffffffffffffff163373ffffffffffffffffffffffffffffffffffffffff16146108f3576040517f08c379a00000000000000000000000000000000000000000000000000000000081526004016108ea90611a96565b60405180910390fd5b4781106108ff57600080fd5b60008273ffffffffffffffffffffffffffffffffffffffff168260405161092590611ae7565b60006040518083038185875af1925050503d8060008114610962576040519150601f19603f3d011682016040523d82523d6000602084013e610967565b606091505b50509050806109ab576040517f08c379a00000000000000000000000000000000000000000000000000000000081526004016109a290611b48565b60405180910390fd5b6109b3610ff8565b505050565b60606001805480602002602001604051908101604052809291908181526020018280548015610a3c57602002820191906000526020600020905b8160009054906101000a900473ffffffffffffffffffffffffffffffffffffffff1673ffffffffffffffffffffffffffffffffffffffff16815260200190600101908083116109f2575b5050505050905090565b600360009054906101000a900473ffffffffffffffffffffffffffffffffffffffff1673ffffffffffffffffffffffffffffffffffffffff163373ffffffffffffffffffffffffffffffffffffffff161480610af757506001600260003373ffffffffffffffffffffffffffffffffffffffff1673ffffffffffffffffffffffffffffffffffffffff16815260200190815260200160002060009054906101000a900463ffffffff1663ffffffff16145b610b36576040517f08c379a0000000000000000000000000000000000000000000000000000000008152600401610b2d9061195e565b60405180910390fd5b6000600560008373ffffffffffffffffffffffffffffffffffffffff1673ffffffffffffffffffffffffffffffffffffffff16815260200190815260200160002060009054906101000a900463ffffffff1663ffffffff1611610bce576040517f08c379a0000000000000000000000000000000000000000000000000000000008152600401610bc590611bb4565b60405180910390fd5b60006001600560008473ffffffffffffffffffffffffffffffffffffffff1673ffffffffffffffffffffffffffffffffffffffff16815260200190815260200160002060009054906101000a900463ffffffff16610c2c9190611c13565b90506001600480549050610c409190611c47565b8163ffffffff1614610e6a57600060046001600480549050610c629190611c47565b81548110610c7357610c72611c7b565b5b90600052602060002090600202016040518060400160405290816000820160009054906101000a900473ffffffffffffffffffffffffffffffffffffffff1673ffffffffffffffffffffffffffffffffffffffff1673ffffffffffffffffffffffffffffffffffffffff168152602001600182018054610cf2906119ad565b80601f0160208091040260200160405190810160405280929190818152602001828054610d1e906119ad565b8015610d6b5780601f10610d4057610100808354040283529160200191610d6b565b820191906000526020600020905b815481529060010190602001808311610d4e57829003601f168201915b50505050508152505090508060048363ffffffff1681548110610d9157610d90611c7b565b5b906000526020600020906002020160008201518160000160006101000a81548173ffffffffffffffffffffffffffffffffffffffff021916908373ffffffffffffffffffffffffffffffffffffffff1602179055506020820151816001019080519060200190610e02929190611163565b509050508160056000836000015173ffffffffffffffffffffffffffffffffffffffff1673ffffffffffffffffffffffffffffffffffffffff16815260200190815260200160002060006101000a81548163ffffffff021916908363ffffffff160217905550505b6004805480610e7c57610e7b611caa565b5b6001900381819060005260206000209060020201600080820160006101000a81549073ffffffffffffffffffffffffffffffffffffffff0219169055600182016000610ec891906111e9565b50509055600560008373ffffffffffffffffffffffffffffffffffffffff1673ffffffffffffffffffffffffffffffffffffffff16815260200190815260200160002060006101000a81549063ffffffff02191690555050565b81600360006101000a81548173ffffffffffffffffffffffffffffffffffffffff021916908373ffffffffffffffffffffffffffffffffffffffff16021790555080610ff45760008054906101000a900473ffffffffffffffffffffffffffffffffffffffff1673ffffffffffffffffffffffffffffffffffffffff1663858ced35836040518263ffffffff1660e01b8152600401610fc191906118f7565b600060405180830381600087803b158015610fdb57600080fd5b505af1158015610fef573d6000803e3d6000fd5b505050505b5050565b66071afd498d0000600360009054906101000a900473ffffffffffffffffffffffffffffffffffffffff1673ffffffffffffffffffffffffffffffffffffffff16311015611161576000600360009054906101000a900473ffffffffffffffffffffffffffffffffffffffff1673ffffffffffffffffffffffffffffffffffffffff16316611c37937e0800061108e9190611c47565b90506000600360009054906101000a900473ffffffffffffffffffffffffffffffffffffffff1673ffffffffffffffffffffffffffffffffffffffff16826040516110d890611ae7565b60006040518083038185875af1925050503d8060008114611115576040519150601f19603f3d011682016040523d82523d6000602084013e61111a565b606091505b505090508061115e576040517f08c379a000000000000000000000000000000000000000000000000000000000815260040161115590611b48565b60405180910390fd5b50505b565b82805461116f906119ad565b90600052602060002090601f01602090048101928261119157600085556111d8565b82601f106111aa57805160ff19168380011785556111d8565b828001600101855582156111d8579182015b828111156111d75782518255916020019190600101906111bc565b5b5090506111e59190611229565b5090565b5080546111f5906119ad565b6000825580601f106112075750611226565b601f0160209004906000526020600020908101906112259190611229565b5b50565b5b8082111561124257600081600090555060010161122a565b5090565b6000604051905090565b600080fd5b600080fd5b600073ffffffffffffffffffffffffffffffffffffffff82169050919050565b60006112858261125a565b9050919050565b6112958161127a565b81146112a057600080fd5b50565b6000813590506112b28161128c565b92915050565b6000602082840312156112ce576112cd611250565b5b60006112dc848285016112a3565b91505092915050565b600081519050919050565b600082825260208201905092915050565b6000819050602082019050919050565b600061131c8261125a565b9050919050565b61132c81611311565b82525050565b600081519050919050565b600082825260208201905092915050565b60005b8381101561136c578082015181840152602081019050611351565b8381111561137b576000848401525b50505050565b6000601f19601f8301169050919050565b600061139d82611332565b6113a7818561133d565b93506113b781856020860161134e565b6113c081611381565b840191505092915050565b60006040830160008301516113e36000860182611323565b50602083015184820360208601526113fb8282611392565b9150508091505092915050565b600061141483836113cb565b905092915050565b6000602082019050919050565b6000611434826112e5565b61143e81856112f0565b93508360208202850161145085611301565b8060005b8581101561148c578484038952815161146d8582611408565b94506114788361141c565b925060208a01995050600181019050611454565b50829750879550505050505092915050565b600060208201905081810360008301526114b88184611429565b905092915050565b6114c981611311565b81146114d457600080fd5b50565b6000813590506114e6816114c0565b92915050565b600080fd5b600080fd5b7f4e487b7100000000000000000000000000000000000000000000000000000000600052604160045260246000fd5b61152e82611381565b810181811067ffffffffffffffff8211171561154d5761154c6114f6565b5b80604052505050565b6000611560611246565b905061156c8282611525565b919050565b600067ffffffffffffffff82111561158c5761158b6114f6565b5b61159582611381565b9050602081019050919050565b82818337600083830152505050565b60006115c46115bf84611571565b611556565b9050828152602081018484840111156115e0576115df6114f1565b5b6115eb8482856115a2565b509392505050565b600082601f830112611608576116076114ec565b5b81356116188482602086016115b1565b91505092915050565b6000806040838503121561163857611637611250565b5b6000611646858286016114d7565b925050602083013567ffffffffffffffff81111561166757611666611255565b5b611673858286016115f3565b9150509250929050565b61168681611311565b82525050565b60006020820190506116a1600083018461167d565b92915050565b6000819050919050565b6116ba816116a7565b81146116c557600080fd5b50565b6000813590506116d7816116b1565b92915050565b600080604083850312156116f4576116f3611250565b5b6000611702858286016114d7565b9250506020611713858286016116c8565b9150509250929050565b600081519050919050565b600082825260208201905092915050565b6000819050602082019050919050565b60006117558383611323565b60208301905092915050565b6000602082019050919050565b60006117798261171d565b6117838185611728565b935061178e83611739565b8060005b838110156117bf5781516117a68882611749565b97506117b183611761565b925050600181019050611792565b5085935050505092915050565b600060208201905081810360008301526117e6818461176e565b905092915050565b60006020828403121561180457611803611250565b5b6000611812848285016114d7565b91505092915050565b600082825260208201905092915050565b7f4e6f7420636f6e74726f6c6c6572000000000000000000000000000000000000600082015250565b6000611862600e8361181b565b915061186d8261182c565b602082019050919050565b6000602082019050818103600083015261189181611855565b9050919050565b6000819050919050565b60006118bd6118b86118b38461125a565b611898565b61125a565b9050919050565b60006118cf826118a2565b9050919050565b60006118e1826118c4565b9050919050565b6118f1816118d6565b82525050565b600060208201905061190c60008301846118e8565b92915050565b7f4e6f742075736572206e65697468657220636f6e74726f6c6c65720000000000600082015250565b6000611948601b8361181b565b915061195382611912565b602082019050919050565b600060208201905081810360008301526119778161193b565b9050919050565b7f4e487b7100000000000000000000000000000000000000000000000000000000600052602260045260246000fd5b600060028204905060018216806119c557607f821691505b6020821081036119d8576119d761197e565b5b50919050565b7f52656365697069656e7420616c7265616479206578697374696e670000000000600082015250565b6000611a14601b8361181b565b9150611a1f826119de565b602082019050919050565b60006020820190508181036000830152611a4381611a07565b9050919050565b7f4e6f742075736572000000000000000000000000000000000000000000000000600082015250565b6000611a8060088361181b565b9150611a8b82611a4a565b602082019050919050565b60006020820190508181036000830152611aaf81611a73565b9050919050565b600081905092915050565b50565b6000611ad1600083611ab6565b9150611adc82611ac1565b600082019050919050565b6000611af282611ac4565b9150819050919050565b7f4661696c656420746f2073656e64204574686572000000000000000000000000600082015250565b6000611b3260148361181b565b9150611b3d82611afc565b602082019050919050565b60006020820190508181036000830152611b6181611b25565b9050919050565b7f52656365697069656e74206e6f7420666f756e64000000000000000000000000600082015250565b6000611b9e60148361181b565b9150611ba982611b68565b602082019050919050565b60006020820190508181036000830152611bcd81611b91565b9050919050565b600063ffffffff82169050919050565b7f4e487b7100000000000000000000000000000000000000000000000000000000600052601160045260246000fd5b6000611c1e82611bd4565b9150611c2983611bd4565b925082821015611c3c57611c3b611be4565b5b828203905092915050565b6000611c52826116a7565b9150611c5d836116a7565b925082821015611c7057611c6f611be4565b5b828203905092915050565b7f4e487b7100000000000000000000000000000000000000000000000000000000600052603260045260246000fd5b7f4e487b7100000000000000000000000000000000000000000000000000000000600052603160045260246000fdfea2646970667358221220adf3fae01dade426b9e3aa29ac6472b09ca55fc124385384f00caade727555a364736f6c634300080d0033",
  "immutableReferences": {},
  "source": "// SPDX-License-Identifier: MIT\npragma solidity >=0.4.22 <0.9.0;\nimport \"./PocketWalletFactory.sol\";\n\nstruct PocketWalletReceipient {\n    address receipient;\n    string label;\n}\n\ncontract PocketWallet {\n    \n    PocketWalletFactory _factory;\n    address[] _controllers;\n    mapping(address => uint32) private _controllersMap;\n\n    uint256 constant GAS_MIN_THRESHOLD = 0.002 ether;\n    uint256 constant GAS_SEND_MAX = 0.005 ether;\n\n    address payable _user;\n\n    PocketWalletReceipient[] _receipients;\n    mapping(address => uint32) private _receipientIndexes;  // indexes starts at 1 because 0 is the default value\n\n    constructor(address controller, address payable user) payable {\n        _factory = PocketWalletFactory(msg.sender);\n        _addControllerInternal(controller, true);\n        _setUserInternal(user, true);\n        _sendGasToUserIfNeeded();\n\n        addReceipient(controller, \"Daddy\");\n    }\n\n    // Modifier to check that the caller is a controller of\n    // the contract.\n    modifier onlyController() {\n        require(_controllersMap[msg.sender] == 1, \"Not controller\");\n        _;\n    }\n\n   // Modifier to check that the caller is the user of\n    // the contract.\n    modifier onlyUser() {\n        require(msg.sender == _user, \"Not user\");\n        _;\n    }\n\n   // Modifier to check that the caller is a user or a controller of\n    // the contract.\n    modifier onlyUserOrController() {\n        require(msg.sender == _user || _controllersMap[msg.sender] == 1, \"Not user neither controller\");\n        _;\n    }\n\n    // Function for Ether deposits\n    receive() external payable {}\n\n    function _addControllerInternal(address controller, bool fromConstructor) private {\n        _controllers.push(controller);\n        _controllersMap[controller] = 1;\n\n        if(!fromConstructor) {\n            _factory.setController(controller);\n        }\n    }\n\n    function register(address payable user) external onlyController {\n        \n        if(_user == address(0)) {\n            _factory.removeUser(_user);\n        }\n\n        _setUserInternal(user, false);\n        _sendGasToUserIfNeeded();\n    }\n\n    function addReceipient(address receipient, string memory label) public onlyUserOrController  {\n        require(_receipientIndexes[receipient] == 0, \"Receipient already existing\");\n        _receipients.push(PocketWalletReceipient(receipient, label));\n        _receipientIndexes[receipient] = uint32(_receipients.length);\n    }\n\n    function removeReceipient(address receipient) public onlyUserOrController  {\n        require(_receipientIndexes[receipient] > 0, \"Receipient not found\");\n\n        uint32 index = _receipientIndexes[receipient] - 1;\n        \n        if (index != _receipients.length - 1) {\n            PocketWalletReceipient memory swappedReceipient = _receipients[_receipients.length - 1];\n            _receipients[index] = swappedReceipient;\n            _receipientIndexes[swappedReceipient.receipient] = index;\n        }\n\n        _receipients.pop();\n\n        delete _receipientIndexes[receipient];\n    }\n\n    function listReceipients() public view onlyUserOrController returns (PocketWalletReceipient[] memory) {\n        return _receipients;\n    }\n    \n    function getUser() external view returns(address) {\n        return _user;\n    }\n\n    function getControllers() external view returns(address[] memory) {\n        return _controllers;\n    }\n\n    function _setUserInternal(address payable user, bool fromConstructor) private {\n        _user  = user;\n\n        if(!fromConstructor) {\n            _factory.setUser(user);\n        }\n    }\n\n    function spend(address receipient, uint256 amount) external onlyUser {\n        require(amount < address(this).balance);\n\n        // send ether to receipient\n        (bool success, ) = receipient.call{value: amount}(\"\");\n        require(success, \"Failed to send Ether\");\n\n        _sendGasToUserIfNeeded();\n    }\n\n    // Send gas to the user to ensure he can always call the contract\n    function _sendGasToUserIfNeeded() private {\n        if(_user.balance < GAS_MIN_THRESHOLD) {\n            uint256 amount = GAS_SEND_MAX - _user.balance;\n\n            (bool success, ) = _user.call{value: amount}(\"\");\n            require(success, \"Failed to send Ether\");\n        }\n    }\n}\n",
  "sourcePath": "/home/exploit/my/truffle/pocket-wallet/contracts/PocketWallet.sol",
  "compiler": {
    "name": "solc",
    "version": "0.8.13+commit.abaa5c0e.Emscripten.clang"
  },
  "schemaVersion": "3.4.7",
  "updatedAt": "2022-06-22T15:05:22.473Z",
  "devdoc": {
    "kind": "dev",
    "methods": {},
    "version": 1
  },
  "userdoc": {
    "kind": "user",
    "methods": {},
    "version": 1
  }
}