{
  "contractName": "PocketWallet",
  "abi": [
    {
      "inputs": [
        {
          "internalType": "address",
          "name": "controller",
          "type": "address"
        },
        {
          "internalType": "address",
          "name": "user",
          "type": "address"
        }
      ],
      "stateMutability": "nonpayable",
      "type": "constructor"
    },
    {
      "stateMutability": "payable",
      "type": "receive"
    },
    {
      "inputs": [
        {
          "internalType": "address",
          "name": "user",
          "type": "address"
        }
      ],
      "name": "register",
      "outputs": [],
      "stateMutability": "nonpayable",
      "type": "function"
    },
    {
      "inputs": [
        {
          "internalType": "address",
          "name": "receipient",
          "type": "address"
        },
        {
          "internalType": "uint256",
          "name": "amount",
          "type": "uint256"
        }
      ],
      "name": "spend",
      "outputs": [],
      "stateMutability": "nonpayable",
      "type": "function"
    }
  ],
  "bytecode": "0x60806040523480156200001157600080fd5b5060405162000d0238038062000d02833981810160405281019062000037919062000346565b336000806101000a81548173ffffffffffffffffffffffffffffffffffffffff021916908373ffffffffffffffffffffffffffffffffffffffff1602179055506200008a826001620000a560201b60201c565b6200009d8160016200020160201b60201c565b5050620003bb565b6001829080600181540180825580915050600190039060005260206000200160009091909190916101000a81548173ffffffffffffffffffffffffffffffffffffffff021916908373ffffffffffffffffffffffffffffffffffffffff1602179055506001600260008473ffffffffffffffffffffffffffffffffffffffff1673ffffffffffffffffffffffffffffffffffffffff16815260200190815260200160002060006101000a81548163ffffffff021916908363ffffffff16021790555080620001fd5760008054906101000a900473ffffffffffffffffffffffffffffffffffffffff1673ffffffffffffffffffffffffffffffffffffffff166392eefe9b836040518263ffffffff1660e01b8152600401620001c891906200039e565b600060405180830381600087803b158015620001e357600080fd5b505af1158015620001f8573d6000803e3d6000fd5b505050505b5050565b81600360006101000a81548173ffffffffffffffffffffffffffffffffffffffff021916908373ffffffffffffffffffffffffffffffffffffffff16021790555080620002d85760008054906101000a900473ffffffffffffffffffffffffffffffffffffffff1673ffffffffffffffffffffffffffffffffffffffff1663858ced35836040518263ffffffff1660e01b8152600401620002a391906200039e565b600060405180830381600087803b158015620002be57600080fd5b505af1158015620002d3573d6000803e3d6000fd5b505050505b5050565b600080fd5b600073ffffffffffffffffffffffffffffffffffffffff82169050919050565b60006200030e82620002e1565b9050919050565b620003208162000301565b81146200032c57600080fd5b50565b600081519050620003408162000315565b92915050565b6000806040838503121562000360576200035f620002dc565b5b600062000370858286016200032f565b925050602062000383858286016200032f565b9150509250929050565b620003988162000301565b82525050565b6000602082019050620003b560008301846200038d565b92915050565b61093780620003cb6000396000f3fe60806040526004361061002d5760003560e01c80634420e48614610039578063af7d6ca31461006257610034565b3661003457005b600080fd5b34801561004557600080fd5b50610060600480360381019061005b9190610636565b61008b565b005b34801561006e57600080fd5b5061008960048036038101906100849190610699565b61023d565b005b6001600260003373ffffffffffffffffffffffffffffffffffffffff1673ffffffffffffffffffffffffffffffffffffffff16815260200190815260200160002060009054906101000a900463ffffffff1663ffffffff1614610123576040517f08c379a000000000000000000000000000000000000000000000000000000000815260040161011a90610736565b60405180910390fd5b600073ffffffffffffffffffffffffffffffffffffffff16600360009054906101000a900473ffffffffffffffffffffffffffffffffffffffff1673ffffffffffffffffffffffffffffffffffffffff16036102275760008054906101000a900473ffffffffffffffffffffffffffffffffffffffff1673ffffffffffffffffffffffffffffffffffffffff166398575188600360009054906101000a900473ffffffffffffffffffffffffffffffffffffffff166040518263ffffffff1660e01b81526004016101f49190610765565b600060405180830381600087803b15801561020e57600080fd5b505af1158015610222573d6000803e3d6000fd5b505050505b610232816000610392565b61023a610468565b50565b600360009054906101000a900473ffffffffffffffffffffffffffffffffffffffff1673ffffffffffffffffffffffffffffffffffffffff163373ffffffffffffffffffffffffffffffffffffffff16146102cd576040517f08c379a00000000000000000000000000000000000000000000000000000000081526004016102c4906107cc565b60405180910390fd5b4781106102d957600080fd5b60008273ffffffffffffffffffffffffffffffffffffffff16826040516102ff9061081d565b60006040518083038185875af1925050503d806000811461033c576040519150601f19603f3d011682016040523d82523d6000602084013e610341565b606091505b5050905080610385576040517f08c379a000000000000000000000000000000000000000000000000000000000815260040161037c9061087e565b60405180910390fd5b61038d610468565b505050565b81600360006101000a81548173ffffffffffffffffffffffffffffffffffffffff021916908373ffffffffffffffffffffffffffffffffffffffff160217905550806104645760008054906101000a900473ffffffffffffffffffffffffffffffffffffffff1673ffffffffffffffffffffffffffffffffffffffff1663858ced35836040518263ffffffff1660e01b81526004016104319190610765565b600060405180830381600087803b15801561044b57600080fd5b505af115801561045f573d6000803e3d6000fd5b505050505b5050565b66071afd498d0000600360009054906101000a900473ffffffffffffffffffffffffffffffffffffffff1673ffffffffffffffffffffffffffffffffffffffff163110156105d1576000600360009054906101000a900473ffffffffffffffffffffffffffffffffffffffff1673ffffffffffffffffffffffffffffffffffffffff16316611c37937e080006104fe91906108cd565b90506000600360009054906101000a900473ffffffffffffffffffffffffffffffffffffffff1673ffffffffffffffffffffffffffffffffffffffff16826040516105489061081d565b60006040518083038185875af1925050503d8060008114610585576040519150601f19603f3d011682016040523d82523d6000602084013e61058a565b606091505b50509050806105ce576040517f08c379a00000000000000000000000000000000000000000000000000000000081526004016105c59061087e565b60405180910390fd5b50505b565b600080fd5b600073ffffffffffffffffffffffffffffffffffffffff82169050919050565b6000610603826105d8565b9050919050565b610613816105f8565b811461061e57600080fd5b50565b6000813590506106308161060a565b92915050565b60006020828403121561064c5761064b6105d3565b5b600061065a84828501610621565b91505092915050565b6000819050919050565b61067681610663565b811461068157600080fd5b50565b6000813590506106938161066d565b92915050565b600080604083850312156106b0576106af6105d3565b5b60006106be85828601610621565b92505060206106cf85828601610684565b9150509250929050565b600082825260208201905092915050565b7f4e6f7420636f6e74726f6c6c6572000000000000000000000000000000000000600082015250565b6000610720600e836106d9565b915061072b826106ea565b602082019050919050565b6000602082019050818103600083015261074f81610713565b9050919050565b61075f816105f8565b82525050565b600060208201905061077a6000830184610756565b92915050565b7f4e6f742075736572000000000000000000000000000000000000000000000000600082015250565b60006107b66008836106d9565b91506107c182610780565b602082019050919050565b600060208201905081810360008301526107e5816107a9565b9050919050565b600081905092915050565b50565b60006108076000836107ec565b9150610812826107f7565b600082019050919050565b6000610828826107fa565b9150819050919050565b7f4661696c656420746f2073656e64204574686572000000000000000000000000600082015250565b60006108686014836106d9565b915061087382610832565b602082019050919050565b600060208201905081810360008301526108978161085b565b9050919050565b7f4e487b7100000000000000000000000000000000000000000000000000000000600052601160045260246000fd5b60006108d882610663565b91506108e383610663565b9250828210156108f6576108f561089e565b5b82820390509291505056fea26469706673582212204b2e0826c6b695e52c6c1eccb04fa7095c283f2c60b5ab3fd29281be20b81e6164736f6c634300080d0033",
  "immutableReferences": {},
  "source": "// SPDX-License-Identifier: MIT\npragma solidity >=0.4.22 <0.9.0;\nimport \"./PocketWalletFactory.sol\";\n\ncontract PocketWallet {\n    \n    PocketWalletFactory _factory;\n    address[] _controllers;\n    mapping(address => uint32) private _controllersMap;\n\n    uint256 constant GAS_MIN_THRESHOLD = 0.002 ether;\n    uint256 constant GAS_SEND_MAX = 0.005 ether;\n\n    address _user;\n\n    constructor(address controller, address user) {\n        _factory = PocketWalletFactory(msg.sender);\n        _addControllerInternal(controller, true);\n        _setUserInternal(user, true);\n    }\n\n    // Modifier to check that the caller is a controller of\n    // the contract.\n    modifier onlyController() {\n        require(_controllersMap[msg.sender] == 1, \"Not controller\");\n        _;\n    }\n\n   // Modifier to check that the caller is the user of\n    // the contract.\n    modifier onlyUser() {\n        require(msg.sender == _user, \"Not user\");\n        _;\n    }\n\n    // Function for Ether deposits\n    receive() external payable {}\n\n    function _addControllerInternal(address controller, bool fromConstructor) private {\n        _controllers.push(controller);\n        _controllersMap[controller] = 1;\n\n        if(!fromConstructor) {\n            _factory.setController(controller);\n        }\n    }\n\n    function register(address user) external onlyController {\n        \n        if(_user == address(0)) {\n            _factory.removeUser(_user);\n        }\n\n        _setUserInternal(user, false);\n        _sendGasToUserIfNeeded();\n    }\n\n    function _setUserInternal(address user, bool fromConstructor) private {\n        _user  = user;\n\n        if(!fromConstructor) {\n            _factory.setUser(user);\n        }\n    }\n\n    function spend(address receipient, uint256 amount) external onlyUser {\n        require(amount < address(this).balance);\n\n        // send ether to receipient\n        (bool success, ) = receipient.call{value: amount}(\"\");\n        require(success, \"Failed to send Ether\");\n\n        _sendGasToUserIfNeeded();\n    }\n\n    // Send gas to the user to ensure he can always call the contract\n    function _sendGasToUserIfNeeded() private {\n        if(_user.balance < GAS_MIN_THRESHOLD) {\n            uint256 amount = GAS_SEND_MAX - _user.balance;\n\n            (bool success, ) = _user.call{value: amount}(\"\");\n            require(success, \"Failed to send Ether\");\n        }\n    }\n}\n",
  "sourcePath": "/home/exploit/my/truffle/pocket-wallet/contracts/PocketWallet.sol",
  "compiler": {
    "name": "solc",
    "version": "0.8.13+commit.abaa5c0e.Emscripten.clang"
  },
  "schemaVersion": "3.4.7",
  "updatedAt": "2022-06-21T09:48:46.036Z",
  "devdoc": {
    "kind": "dev",
    "methods": {},
    "version": 1
  },
  "userdoc": {
    "kind": "user",
    "methods": {},
    "version": 1
  }
}