{
  "contractName": "PocketWalletFactory",
  "abi": [
    {
      "inputs": [],
      "stateMutability": "nonpayable",
      "type": "constructor"
    },
    {
      "inputs": [],
      "name": "isInitialized",
      "outputs": [
        {
          "internalType": "bool",
          "name": "",
          "type": "bool"
        }
      ],
      "stateMutability": "pure",
      "type": "function",
      "constant": true
    },
    {
      "inputs": [
        {
          "internalType": "address",
          "name": "controller",
          "type": "address"
        }
      ],
      "name": "setController",
      "outputs": [],
      "stateMutability": "nonpayable",
      "type": "function"
    },
    {
      "inputs": [
        {
          "internalType": "address",
          "name": "user",
          "type": "address"
        }
      ],
      "name": "setUser",
      "outputs": [],
      "stateMutability": "nonpayable",
      "type": "function"
    },
    {
      "inputs": [
        {
          "internalType": "address",
          "name": "user",
          "type": "address"
        }
      ],
      "name": "removeUser",
      "outputs": [],
      "stateMutability": "nonpayable",
      "type": "function"
    },
    {
      "inputs": [
        {
          "internalType": "address payable",
          "name": "user",
          "type": "address"
        }
      ],
      "name": "createPocketWallet",
      "outputs": [],
      "stateMutability": "payable",
      "type": "function",
      "payable": true
    },
    {
      "inputs": [
        {
          "internalType": "address",
          "name": "user",
          "type": "address"
        }
      ],
      "name": "getUserContractAddress",
      "outputs": [
        {
          "internalType": "address",
          "name": "",
          "type": "address"
        }
      ],
      "stateMutability": "view",
      "type": "function",
      "constant": true
    },
    {
      "inputs": [],
      "name": "getMyControlledContractAddress",
      "outputs": [
        {
          "internalType": "address",
          "name": "",
          "type": "address"
        }
      ],
      "stateMutability": "view",
      "type": "function",
      "constant": true
    }
  ],
  "bytecode": "0x608060405234801561001057600080fd5b5061351a806100206000396000f3fe6080604052600436106200007a5760003560e01c806392eefe9b116200005557806392eefe9b146200010d57806398575188146200013b5780639888402e1462000169578063a6e497b61462000189576200007a565b8063392e53cd146200007f57806339526f6014620000af578063858ced3514620000df575b600080fd5b3480156200008c57600080fd5b5062000097620001cd565b604051620000a69190620007a6565b60405180910390f35b348015620000bc57600080fd5b50620000c7620001d6565b604051620000d6919062000808565b60405180910390f35b348015620000ec57600080fd5b506200010b60048036038101906200010591906200085b565b6200023c565b005b3480156200011a57600080fd5b506200013960048036038101906200013391906200085b565b62000358565b005b3480156200014857600080fd5b506200016760048036038101906200016191906200085b565b62000473565b005b620001876004803603810190620001819190620008d2565b62000573565b005b3480156200019657600080fd5b50620001b56004803603810190620001af91906200085b565b62000712565b604051620001c4919062000808565b60405180910390f35b60006001905090565b60008060003373ffffffffffffffffffffffffffffffffffffffff1673ffffffffffffffffffffffffffffffffffffffff16815260200190815260200160002060009054906101000a900473ffffffffffffffffffffffffffffffffffffffff16905090565b6000600260003373ffffffffffffffffffffffffffffffffffffffff1673ffffffffffffffffffffffffffffffffffffffff16815260200190815260200160002060009054906101000a900463ffffffff1663ffffffff1611620002d7576040517f08c379a0000000000000000000000000000000000000000000000000000000008152600401620002ce906200098b565b60405180910390fd5b33600160008373ffffffffffffffffffffffffffffffffffffffff1673ffffffffffffffffffffffffffffffffffffffff16815260200190815260200160002060006101000a81548173ffffffffffffffffffffffffffffffffffffffff021916908373ffffffffffffffffffffffffffffffffffffffff16021790555050565b6000600260003373ffffffffffffffffffffffffffffffffffffffff1673ffffffffffffffffffffffffffffffffffffffff16815260200190815260200160002060009054906101000a900463ffffffff1663ffffffff1611620003f3576040517f08c379a0000000000000000000000000000000000000000000000000000000008152600401620003ea906200098b565b60405180910390fd5b336000808373ffffffffffffffffffffffffffffffffffffffff1673ffffffffffffffffffffffffffffffffffffffff16815260200190815260200160002060006101000a81548173ffffffffffffffffffffffffffffffffffffffff021916908373ffffffffffffffffffffffffffffffffffffffff16021790555050565b6000600260003373ffffffffffffffffffffffffffffffffffffffff1673ffffffffffffffffffffffffffffffffffffffff16815260200190815260200160002060009054906101000a900463ffffffff1663ffffffff16116200050e576040517f08c379a000000000000000000000000000000000000000000000000000000000815260040162000505906200098b565b60405180910390fd5b600160008273ffffffffffffffffffffffffffffffffffffffff1673ffffffffffffffffffffffffffffffffffffffff16815260200190815260200160002060006101000a81549073ffffffffffffffffffffffffffffffffffffffff021916905550565b600034338360405162000586906200077b565b62000593929190620009be565b6040518091039082f0905080158015620005b1573d6000803e3d6000fd5b5090506001600260008373ffffffffffffffffffffffffffffffffffffffff1673ffffffffffffffffffffffffffffffffffffffff16815260200190815260200160002060006101000a81548163ffffffff021916908363ffffffff160217905550806000803373ffffffffffffffffffffffffffffffffffffffff1673ffffffffffffffffffffffffffffffffffffffff16815260200190815260200160002060006101000a81548173ffffffffffffffffffffffffffffffffffffffff021916908373ffffffffffffffffffffffffffffffffffffffff16021790555080600160008473ffffffffffffffffffffffffffffffffffffffff1673ffffffffffffffffffffffffffffffffffffffff16815260200190815260200160002060006101000a81548173ffffffffffffffffffffffffffffffffffffffff021916908373ffffffffffffffffffffffffffffffffffffffff1602179055505050565b6000600160008373ffffffffffffffffffffffffffffffffffffffff1673ffffffffffffffffffffffffffffffffffffffff16815260200190815260200160002060009054906101000a900473ffffffffffffffffffffffffffffffffffffffff169050919050565b612af980620009ec83390190565b60008115159050919050565b620007a08162000789565b82525050565b6000602082019050620007bd600083018462000795565b92915050565b600073ffffffffffffffffffffffffffffffffffffffff82169050919050565b6000620007f082620007c3565b9050919050565b6200080281620007e3565b82525050565b60006020820190506200081f6000830184620007f7565b92915050565b600080fd5b6200083581620007e3565b81146200084157600080fd5b50565b60008135905062000855816200082a565b92915050565b60006020828403121562000874576200087362000825565b5b6000620008848482850162000844565b91505092915050565b60006200089a82620007c3565b9050919050565b620008ac816200088d565b8114620008b857600080fd5b50565b600081359050620008cc81620008a1565b92915050565b600060208284031215620008eb57620008ea62000825565b5b6000620008fb84828501620008bb565b91505092915050565b600082825260208201905092915050565b7f506f636b65742077616c6c6574206973206e6f7420726567697374657265642060008201527f696e20666163746f727900000000000000000000000000000000000000000000602082015250565b600062000973602a8362000904565b9150620009808262000915565b604082019050919050565b60006020820190508181036000830152620009a68162000964565b9050919050565b620009b8816200088d565b82525050565b6000604082019050620009d56000830185620007f7565b620009e46020830184620009ad565b939250505056fe608060405260405162002af938038062002af9833981810160405281019062000029919062000904565b336000806101000a81548173ffffffffffffffffffffffffffffffffffffffff021916908373ffffffffffffffffffffffffffffffffffffffff1602179055506200007c826001620000ee60201b60201c565b6200008f8160016200024a60201b60201c565b6200009f6200032560201b60201c565b620000e6826040518060400160405280600581526020017f44616464790000000000000000000000000000000000000000000000000000008152506200049a60201b60201c565b505062000cb2565b6001829080600181540180825580915050600190039060005260206000200160009091909190916101000a81548173ffffffffffffffffffffffffffffffffffffffff021916908373ffffffffffffffffffffffffffffffffffffffff1602179055506001600260008473ffffffffffffffffffffffffffffffffffffffff1673ffffffffffffffffffffffffffffffffffffffff16815260200190815260200160002060006101000a81548163ffffffff021916908363ffffffff16021790555080620002465760008054906101000a900473ffffffffffffffffffffffffffffffffffffffff1673ffffffffffffffffffffffffffffffffffffffff166392eefe9b836040518263ffffffff1660e01b81526004016200021191906200095c565b600060405180830381600087803b1580156200022c57600080fd5b505af115801562000241573d6000803e3d6000fd5b505050505b5050565b81600360006101000a81548173ffffffffffffffffffffffffffffffffffffffff021916908373ffffffffffffffffffffffffffffffffffffffff16021790555080620003215760008054906101000a900473ffffffffffffffffffffffffffffffffffffffff1673ffffffffffffffffffffffffffffffffffffffff1663858ced35836040518263ffffffff1660e01b8152600401620002ec9190620009e4565b600060405180830381600087803b1580156200030757600080fd5b505af11580156200031c573d6000803e3d6000fd5b505050505b5050565b66071afd498d0000600360009054906101000a900473ffffffffffffffffffffffffffffffffffffffff1673ffffffffffffffffffffffffffffffffffffffff1631101562000498576000600360009054906101000a900473ffffffffffffffffffffffffffffffffffffffff1673ffffffffffffffffffffffffffffffffffffffff16316611c37937e08000620003be919062000a3a565b90506000600360009054906101000a900473ffffffffffffffffffffffffffffffffffffffff1673ffffffffffffffffffffffffffffffffffffffff16826040516200040a9062000aaa565b60006040518083038185875af1925050503d806000811462000449576040519150601f19603f3d011682016040523d82523d6000602084013e6200044e565b606091505b505090508062000495576040517f08c379a00000000000000000000000000000000000000000000000000000000081526004016200048c9062000b22565b60405180910390fd5b50505b565b600360009054906101000a900473ffffffffffffffffffffffffffffffffffffffff1673ffffffffffffffffffffffffffffffffffffffff163373ffffffffffffffffffffffffffffffffffffffff16148062000542575060008054906101000a900473ffffffffffffffffffffffffffffffffffffffff1673ffffffffffffffffffffffffffffffffffffffff163373ffffffffffffffffffffffffffffffffffffffff16145b80620005a357506001600260003373ffffffffffffffffffffffffffffffffffffffff1673ffffffffffffffffffffffffffffffffffffffff16815260200190815260200160002060009054906101000a900463ffffffff1663ffffffff16145b620005e5576040517f08c379a0000000000000000000000000000000000000000000000000000000008152600401620005dc9062000bba565b60405180910390fd5b6000600560008473ffffffffffffffffffffffffffffffffffffffff1673ffffffffffffffffffffffffffffffffffffffff16815260200190815260200160002060009054906101000a900463ffffffff1663ffffffff161462000680576040517f08c379a0000000000000000000000000000000000000000000000000000000008152600401620006779062000c2c565b60405180910390fd5b600460405180604001604052808473ffffffffffffffffffffffffffffffffffffffff16815260200183815250908060018154018082558091505060019003906000526020600020906002020160009091909190915060008201518160000160006101000a81548173ffffffffffffffffffffffffffffffffffffffff021916908373ffffffffffffffffffffffffffffffffffffffff16021790555060208201518160010190805190602001906200073b929190620007a5565b505050600480549050600560008473ffffffffffffffffffffffffffffffffffffffff1673ffffffffffffffffffffffffffffffffffffffff16815260200190815260200160002060006101000a81548163ffffffff021916908363ffffffff1602179055505050565b828054620007b39062000c7d565b90600052602060002090601f016020900481019282620007d7576000855562000823565b82601f10620007f257805160ff191683800117855562000823565b8280016001018555821562000823579182015b828111156200082257825182559160200191906001019062000805565b5b50905062000832919062000836565b5090565b5b808211156200085157600081600090555060010162000837565b5090565b600080fd5b600073ffffffffffffffffffffffffffffffffffffffff82169050919050565b600062000887826200085a565b9050919050565b62000899816200087a565b8114620008a557600080fd5b50565b600081519050620008b9816200088e565b92915050565b6000620008cc826200085a565b9050919050565b620008de81620008bf565b8114620008ea57600080fd5b50565b600081519050620008fe81620008d3565b92915050565b600080604083850312156200091e576200091d62000855565b5b60006200092e85828601620008a8565b92505060206200094185828601620008ed565b9150509250929050565b62000956816200087a565b82525050565b60006020820190506200097360008301846200094b565b92915050565b6000819050919050565b6000620009a46200099e62000998846200085a565b62000979565b6200085a565b9050919050565b6000620009b88262000983565b9050919050565b6000620009cc82620009ab565b9050919050565b620009de81620009bf565b82525050565b6000602082019050620009fb6000830184620009d3565b92915050565b6000819050919050565b7f4e487b7100000000000000000000000000000000000000000000000000000000600052601160045260246000fd5b600062000a478262000a01565b915062000a548362000a01565b92508282101562000a6a5762000a6962000a0b565b5b828203905092915050565b600081905092915050565b50565b600062000a9260008362000a75565b915062000a9f8262000a80565b600082019050919050565b600062000ab78262000a83565b9150819050919050565b600082825260208201905092915050565b7f4661696c656420746f2073656e64204574686572000000000000000000000000600082015250565b600062000b0a60148362000ac1565b915062000b178262000ad2565b602082019050919050565b6000602082019050818103600083015262000b3d8162000afb565b9050919050565b7f4d7573742062652065697468657220757365722c20636f6e74726f6c6c65722060008201527f6f7220666163746f727900000000000000000000000000000000000000000000602082015250565b600062000ba2602a8362000ac1565b915062000baf8262000b44565b604082019050919050565b6000602082019050818103600083015262000bd58162000b93565b9050919050565b7f52656365697069656e7420616c7265616479206578697374696e670000000000600082015250565b600062000c14601b8362000ac1565b915062000c218262000bdc565b602082019050919050565b6000602082019050818103600083015262000c478162000c05565b9050919050565b7f4e487b7100000000000000000000000000000000000000000000000000000000600052602260045260246000fd5b6000600282049050600182168062000c9657607f821691505b60208210810362000cac5762000cab62000c4e565b5b50919050565b611e378062000cc26000396000f3fe6080604052600436106100745760003560e01c8063832880e71161004e578063832880e7146100fd578063af7d6ca314610128578063b4e8a6c414610151578063ef6a7c1d1461017c5761007b565b80634420e4861461008057806359ba1394146100a95780635f4ad480146100d45761007b565b3661007b57005b600080fd5b34801561008c57600080fd5b506100a760048036038101906100a291906113ba565b6101a5565b005b3480156100b557600080fd5b506100be610357565b6040516100cb91906115a0565b60405180910390f35b3480156100e057600080fd5b506100fb60048036038101906100f69190611723565b6105e4565b005b34801561010957600080fd5b506101126108e5565b60405161011f919061178e565b60405180910390f35b34801561013457600080fd5b5061014f600480360381019061014a91906117df565b61090f565b005b34801561015d57600080fd5b50610166610a64565b60405161017391906118ce565b60405180910390f35b34801561018857600080fd5b506101a3600480360381019061019e91906118f0565b610af2565b005b6001600260003373ffffffffffffffffffffffffffffffffffffffff1673ffffffffffffffffffffffffffffffffffffffff16815260200190815260200160002060009054906101000a900463ffffffff1663ffffffff161461023d576040517f08c379a00000000000000000000000000000000000000000000000000000000081526004016102349061197a565b60405180910390fd5b600073ffffffffffffffffffffffffffffffffffffffff16600360009054906101000a900473ffffffffffffffffffffffffffffffffffffffff1673ffffffffffffffffffffffffffffffffffffffff16036103415760008054906101000a900473ffffffffffffffffffffffffffffffffffffffff1673ffffffffffffffffffffffffffffffffffffffff166398575188600360009054906101000a900473ffffffffffffffffffffffffffffffffffffffff166040518263ffffffff1660e01b815260040161030e91906119f9565b600060405180830381600087803b15801561032857600080fd5b505af115801561033c573d6000803e3d6000fd5b505050505b61034c816000611024565b6103546110fa565b50565b6060600360009054906101000a900473ffffffffffffffffffffffffffffffffffffffff1673ffffffffffffffffffffffffffffffffffffffff163373ffffffffffffffffffffffffffffffffffffffff161480610400575060008054906101000a900473ffffffffffffffffffffffffffffffffffffffff1673ffffffffffffffffffffffffffffffffffffffff163373ffffffffffffffffffffffffffffffffffffffff16145b8061046057506001600260003373ffffffffffffffffffffffffffffffffffffffff1673ffffffffffffffffffffffffffffffffffffffff16815260200190815260200160002060009054906101000a900463ffffffff1663ffffffff16145b61049f576040517f08c379a000000000000000000000000000000000000000000000000000000000815260040161049690611a86565b60405180910390fd5b6004805480602002602001604051908101604052809291908181526020016000905b828210156105db57838290600052602060002090600202016040518060400160405290816000820160009054906101000a900473ffffffffffffffffffffffffffffffffffffffff1673ffffffffffffffffffffffffffffffffffffffff1673ffffffffffffffffffffffffffffffffffffffff16815260200160018201805461054a90611ad5565b80601f016020809104026020016040519081016040528092919081815260200182805461057690611ad5565b80156105c35780601f10610598576101008083540402835291602001916105c3565b820191906000526020600020905b8154815290600101906020018083116105a657829003601f168201915b505050505081525050815260200190600101906104c1565b50505050905090565b600360009054906101000a900473ffffffffffffffffffffffffffffffffffffffff1673ffffffffffffffffffffffffffffffffffffffff163373ffffffffffffffffffffffffffffffffffffffff16148061068b575060008054906101000a900473ffffffffffffffffffffffffffffffffffffffff1673ffffffffffffffffffffffffffffffffffffffff163373ffffffffffffffffffffffffffffffffffffffff16145b806106eb57506001600260003373ffffffffffffffffffffffffffffffffffffffff1673ffffffffffffffffffffffffffffffffffffffff16815260200190815260200160002060009054906101000a900463ffffffff1663ffffffff16145b61072a576040517f08c379a000000000000000000000000000000000000000000000000000000000815260040161072190611a86565b60405180910390fd5b6000600560008473ffffffffffffffffffffffffffffffffffffffff1673ffffffffffffffffffffffffffffffffffffffff16815260200190815260200160002060009054906101000a900463ffffffff1663ffffffff16146107c2576040517f08c379a00000000000000000000000000000000000000000000000000000000081526004016107b990611b52565b60405180910390fd5b600460405180604001604052808473ffffffffffffffffffffffffffffffffffffffff16815260200183815250908060018154018082558091505060019003906000526020600020906002020160009091909190915060008201518160000160006101000a81548173ffffffffffffffffffffffffffffffffffffffff021916908373ffffffffffffffffffffffffffffffffffffffff160217905550602082015181600101908051906020019061087b929190611265565b505050600480549050600560008473ffffffffffffffffffffffffffffffffffffffff1673ffffffffffffffffffffffffffffffffffffffff16815260200190815260200160002060006101000a81548163ffffffff021916908363ffffffff1602179055505050565b6000600360009054906101000a900473ffffffffffffffffffffffffffffffffffffffff16905090565b600360009054906101000a900473ffffffffffffffffffffffffffffffffffffffff1673ffffffffffffffffffffffffffffffffffffffff163373ffffffffffffffffffffffffffffffffffffffff161461099f576040517f08c379a000000000000000000000000000000000000000000000000000000000815260040161099690611bbe565b60405180910390fd5b4781106109ab57600080fd5b60008273ffffffffffffffffffffffffffffffffffffffff16826040516109d190611c0f565b60006040518083038185875af1925050503d8060008114610a0e576040519150601f19603f3d011682016040523d82523d6000602084013e610a13565b606091505b5050905080610a57576040517f08c379a0000000000000000000000000000000000000000000000000000000008152600401610a4e90611c70565b60405180910390fd5b610a5f6110fa565b505050565b60606001805480602002602001604051908101604052809291908181526020018280548015610ae857602002820191906000526020600020905b8160009054906101000a900473ffffffffffffffffffffffffffffffffffffffff1673ffffffffffffffffffffffffffffffffffffffff1681526020019060010190808311610a9e575b5050505050905090565b600360009054906101000a900473ffffffffffffffffffffffffffffffffffffffff1673ffffffffffffffffffffffffffffffffffffffff163373ffffffffffffffffffffffffffffffffffffffff161480610b99575060008054906101000a900473ffffffffffffffffffffffffffffffffffffffff1673ffffffffffffffffffffffffffffffffffffffff163373ffffffffffffffffffffffffffffffffffffffff16145b80610bf957506001600260003373ffffffffffffffffffffffffffffffffffffffff1673ffffffffffffffffffffffffffffffffffffffff16815260200190815260200160002060009054906101000a900463ffffffff1663ffffffff16145b610c38576040517f08c379a0000000000000000000000000000000000000000000000000000000008152600401610c2f90611a86565b60405180910390fd5b6000600560008373ffffffffffffffffffffffffffffffffffffffff1673ffffffffffffffffffffffffffffffffffffffff16815260200190815260200160002060009054906101000a900463ffffffff1663ffffffff1611610cd0576040517f08c379a0000000000000000000000000000000000000000000000000000000008152600401610cc790611cdc565b60405180910390fd5b60006001600560008473ffffffffffffffffffffffffffffffffffffffff1673ffffffffffffffffffffffffffffffffffffffff16815260200190815260200160002060009054906101000a900463ffffffff16610d2e9190611d3b565b90506001600480549050610d429190611d6f565b8163ffffffff1614610f6c57600060046001600480549050610d649190611d6f565b81548110610d7557610d74611da3565b5b90600052602060002090600202016040518060400160405290816000820160009054906101000a900473ffffffffffffffffffffffffffffffffffffffff1673ffffffffffffffffffffffffffffffffffffffff1673ffffffffffffffffffffffffffffffffffffffff168152602001600182018054610df490611ad5565b80601f0160208091040260200160405190810160405280929190818152602001828054610e2090611ad5565b8015610e6d5780601f10610e4257610100808354040283529160200191610e6d565b820191906000526020600020905b815481529060010190602001808311610e5057829003601f168201915b50505050508152505090508060048363ffffffff1681548110610e9357610e92611da3565b5b906000526020600020906002020160008201518160000160006101000a81548173ffffffffffffffffffffffffffffffffffffffff021916908373ffffffffffffffffffffffffffffffffffffffff1602179055506020820151816001019080519060200190610f04929190611265565b509050508160056000836000015173ffffffffffffffffffffffffffffffffffffffff1673ffffffffffffffffffffffffffffffffffffffff16815260200190815260200160002060006101000a81548163ffffffff021916908363ffffffff160217905550505b6004805480610f7e57610f7d611dd2565b5b6001900381819060005260206000209060020201600080820160006101000a81549073ffffffffffffffffffffffffffffffffffffffff0219169055600182016000610fca91906112eb565b50509055600560008373ffffffffffffffffffffffffffffffffffffffff1673ffffffffffffffffffffffffffffffffffffffff16815260200190815260200160002060006101000a81549063ffffffff02191690555050565b81600360006101000a81548173ffffffffffffffffffffffffffffffffffffffff021916908373ffffffffffffffffffffffffffffffffffffffff160217905550806110f65760008054906101000a900473ffffffffffffffffffffffffffffffffffffffff1673ffffffffffffffffffffffffffffffffffffffff1663858ced35836040518263ffffffff1660e01b81526004016110c391906119f9565b600060405180830381600087803b1580156110dd57600080fd5b505af11580156110f1573d6000803e3d6000fd5b505050505b5050565b66071afd498d0000600360009054906101000a900473ffffffffffffffffffffffffffffffffffffffff1673ffffffffffffffffffffffffffffffffffffffff16311015611263576000600360009054906101000a900473ffffffffffffffffffffffffffffffffffffffff1673ffffffffffffffffffffffffffffffffffffffff16316611c37937e080006111909190611d6f565b90506000600360009054906101000a900473ffffffffffffffffffffffffffffffffffffffff1673ffffffffffffffffffffffffffffffffffffffff16826040516111da90611c0f565b60006040518083038185875af1925050503d8060008114611217576040519150601f19603f3d011682016040523d82523d6000602084013e61121c565b606091505b5050905080611260576040517f08c379a000000000000000000000000000000000000000000000000000000000815260040161125790611c70565b60405180910390fd5b50505b565b82805461127190611ad5565b90600052602060002090601f01602090048101928261129357600085556112da565b82601f106112ac57805160ff19168380011785556112da565b828001600101855582156112da579182015b828111156112d95782518255916020019190600101906112be565b5b5090506112e7919061132b565b5090565b5080546112f790611ad5565b6000825580601f106113095750611328565b601f016020900490600052602060002090810190611327919061132b565b5b50565b5b8082111561134457600081600090555060010161132c565b5090565b6000604051905090565b600080fd5b600080fd5b600073ffffffffffffffffffffffffffffffffffffffff82169050919050565b60006113878261135c565b9050919050565b6113978161137c565b81146113a257600080fd5b50565b6000813590506113b48161138e565b92915050565b6000602082840312156113d0576113cf611352565b5b60006113de848285016113a5565b91505092915050565b600081519050919050565b600082825260208201905092915050565b6000819050602082019050919050565b600061141e8261135c565b9050919050565b61142e81611413565b82525050565b600081519050919050565b600082825260208201905092915050565b60005b8381101561146e578082015181840152602081019050611453565b8381111561147d576000848401525b50505050565b6000601f19601f8301169050919050565b600061149f82611434565b6114a9818561143f565b93506114b9818560208601611450565b6114c281611483565b840191505092915050565b60006040830160008301516114e56000860182611425565b50602083015184820360208601526114fd8282611494565b9150508091505092915050565b600061151683836114cd565b905092915050565b6000602082019050919050565b6000611536826113e7565b61154081856113f2565b93508360208202850161155285611403565b8060005b8581101561158e578484038952815161156f858261150a565b945061157a8361151e565b925060208a01995050600181019050611556565b50829750879550505050505092915050565b600060208201905081810360008301526115ba818461152b565b905092915050565b6115cb81611413565b81146115d657600080fd5b50565b6000813590506115e8816115c2565b92915050565b600080fd5b600080fd5b7f4e487b7100000000000000000000000000000000000000000000000000000000600052604160045260246000fd5b61163082611483565b810181811067ffffffffffffffff8211171561164f5761164e6115f8565b5b80604052505050565b6000611662611348565b905061166e8282611627565b919050565b600067ffffffffffffffff82111561168e5761168d6115f8565b5b61169782611483565b9050602081019050919050565b82818337600083830152505050565b60006116c66116c184611673565b611658565b9050828152602081018484840111156116e2576116e16115f3565b5b6116ed8482856116a4565b509392505050565b600082601f83011261170a576117096115ee565b5b813561171a8482602086016116b3565b91505092915050565b6000806040838503121561173a57611739611352565b5b6000611748858286016115d9565b925050602083013567ffffffffffffffff81111561176957611768611357565b5b611775858286016116f5565b9150509250929050565b61178881611413565b82525050565b60006020820190506117a3600083018461177f565b92915050565b6000819050919050565b6117bc816117a9565b81146117c757600080fd5b50565b6000813590506117d9816117b3565b92915050565b600080604083850312156117f6576117f5611352565b5b6000611804858286016115d9565b9250506020611815858286016117ca565b9150509250929050565b600081519050919050565b600082825260208201905092915050565b6000819050602082019050919050565b60006118578383611425565b60208301905092915050565b6000602082019050919050565b600061187b8261181f565b611885818561182a565b93506118908361183b565b8060005b838110156118c15781516118a8888261184b565b97506118b383611863565b925050600181019050611894565b5085935050505092915050565b600060208201905081810360008301526118e88184611870565b905092915050565b60006020828403121561190657611905611352565b5b6000611914848285016115d9565b91505092915050565b600082825260208201905092915050565b7f4e6f7420636f6e74726f6c6c6572000000000000000000000000000000000000600082015250565b6000611964600e8361191d565b915061196f8261192e565b602082019050919050565b6000602082019050818103600083015261199381611957565b9050919050565b6000819050919050565b60006119bf6119ba6119b58461135c565b61199a565b61135c565b9050919050565b60006119d1826119a4565b9050919050565b60006119e3826119c6565b9050919050565b6119f3816119d8565b82525050565b6000602082019050611a0e60008301846119ea565b92915050565b7f4d7573742062652065697468657220757365722c20636f6e74726f6c6c65722060008201527f6f7220666163746f727900000000000000000000000000000000000000000000602082015250565b6000611a70602a8361191d565b9150611a7b82611a14565b604082019050919050565b60006020820190508181036000830152611a9f81611a63565b9050919050565b7f4e487b7100000000000000000000000000000000000000000000000000000000600052602260045260246000fd5b60006002820490506001821680611aed57607f821691505b602082108103611b0057611aff611aa6565b5b50919050565b7f52656365697069656e7420616c7265616479206578697374696e670000000000600082015250565b6000611b3c601b8361191d565b9150611b4782611b06565b602082019050919050565b60006020820190508181036000830152611b6b81611b2f565b9050919050565b7f4e6f742075736572000000000000000000000000000000000000000000000000600082015250565b6000611ba860088361191d565b9150611bb382611b72565b602082019050919050565b60006020820190508181036000830152611bd781611b9b565b9050919050565b600081905092915050565b50565b6000611bf9600083611bde565b9150611c0482611be9565b600082019050919050565b6000611c1a82611bec565b9150819050919050565b7f4661696c656420746f2073656e64204574686572000000000000000000000000600082015250565b6000611c5a60148361191d565b9150611c6582611c24565b602082019050919050565b60006020820190508181036000830152611c8981611c4d565b9050919050565b7f52656365697069656e74206e6f7420666f756e64000000000000000000000000600082015250565b6000611cc660148361191d565b9150611cd182611c90565b602082019050919050565b60006020820190508181036000830152611cf581611cb9565b9050919050565b600063ffffffff82169050919050565b7f4e487b7100000000000000000000000000000000000000000000000000000000600052601160045260246000fd5b6000611d4682611cfc565b9150611d5183611cfc565b925082821015611d6457611d63611d0c565b5b828203905092915050565b6000611d7a826117a9565b9150611d85836117a9565b925082821015611d9857611d97611d0c565b5b828203905092915050565b7f4e487b7100000000000000000000000000000000000000000000000000000000600052603260045260246000fd5b7f4e487b7100000000000000000000000000000000000000000000000000000000600052603160045260246000fdfea2646970667358221220c27d4695b5afd4f7122cbf2a27f83aafa067194571f0c433b2d6f7a75f7906ef64736f6c634300080d0033a264697066735822122090ea1a39fc6dae424f34d8cafb1b029f5310a28d83cd344acd1d7bb31633aacb64736f6c634300080d0033",
  "immutableReferences": {},
  "source": "// SPDX-License-Identifier: MIT\npragma solidity >=0.4.22 <0.9.0;\nimport \"./PocketWallet.sol\";\n\ncontract PocketWalletFactory {\n\n    mapping(address => address) private _controllersToContract;\n    mapping(address => address) private _usersToContract;\n    mapping(address => uint32) private _contractsMap;\n\n    constructor() {\n    }\n\n    function isInitialized() external pure returns (bool) {\n        return true;\n    }\n\n    function setController(address controller) external {\n        require(_contractsMap[msg.sender] > 0, \"Pocket wallet is not registered in factory\"); // ensures the pocket wallet contract (= sender) has been created from this factory\n        _controllersToContract[controller] = msg.sender;\n    }\n\n    function setUser(address user) external {\n        require(_contractsMap[msg.sender] > 0, \"Pocket wallet is not registered in factory\"); // ensures the pocket wallet contract (= sender) has been created from this factory\n        _usersToContract[user] = msg.sender;\n    }\n\n    function removeUser(address user) external {\n        require(_contractsMap[msg.sender] > 0, \"Pocket wallet is not registered in factory\"); // ensures the pocket wallet contract (= sender) has been created from this factory\n        delete _usersToContract[user];\n    }\n\n    function createPocketWallet(address payable user) external payable {\n        PocketWallet wallet = (new PocketWallet){value: msg.value}(msg.sender, user);\n        _contractsMap[address(wallet)] = 1;\n        _controllersToContract[msg.sender] = address(wallet);\n        _usersToContract[user] = address(wallet); \n    }\n\n    function getUserContractAddress(address user) external view returns (address) {\n        return _usersToContract[user];\n    }\n\n    function getMyControlledContractAddress() external view returns (address) {\n        return _controllersToContract[msg.sender];\n    }\n}\n",
  "sourcePath": "/home/exploit/my/truffle/pocket-wallet/contracts/PocketWalletFactory.sol",
  "compiler": {
    "name": "solc",
    "version": "0.8.13+commit.abaa5c0e.Emscripten.clang"
  },
  "schemaVersion": "3.4.7",
  "updatedAt": "2022-06-27T06:58:13.553Z",
  "networkType": "ethereum",
  "devdoc": {
    "kind": "dev",
    "methods": {},
    "version": 1
  },
  "userdoc": {
    "kind": "user",
    "methods": {},
    "version": 1
  }
}