{
  "contractName": "PocketWallet",
  "abi": [
    {
      "inputs": [
        {
          "internalType": "address",
          "name": "controller",
          "type": "address"
        },
        {
          "internalType": "address",
          "name": "user",
          "type": "address"
        }
      ],
      "stateMutability": "nonpayable",
      "type": "constructor"
    },
    {
      "stateMutability": "payable",
      "type": "receive"
    },
    {
      "inputs": [
        {
          "internalType": "address",
          "name": "user",
          "type": "address"
        }
      ],
      "name": "register",
      "outputs": [],
      "stateMutability": "nonpayable",
      "type": "function"
    },
    {
      "inputs": [
        {
          "internalType": "address",
          "name": "receipient",
          "type": "address"
        },
        {
          "internalType": "uint256",
          "name": "amount",
          "type": "uint256"
        }
      ],
      "name": "spend",
      "outputs": [],
      "stateMutability": "nonpayable",
      "type": "function"
    }
  ],
  "bytecode": "0x60806040523480156200001157600080fd5b5060405162000ce538038062000ce5833981810160405281019062000037919062000332565b336000806101000a81548173ffffffffffffffffffffffffffffffffffffffff021916908373ffffffffffffffffffffffffffffffffffffffff1602179055506200008882620000a160201b60201c565b6200009981620001f560201b60201c565b5050620003a7565b6001819080600181540180825580915050600190039060005260206000200160009091909190916101000a81548173ffffffffffffffffffffffffffffffffffffffff021916908373ffffffffffffffffffffffffffffffffffffffff1602179055506001600260008373ffffffffffffffffffffffffffffffffffffffff1673ffffffffffffffffffffffffffffffffffffffff16815260200190815260200160002060006101000a81548163ffffffff021916908363ffffffff16021790555060008054906101000a900473ffffffffffffffffffffffffffffffffffffffff1673ffffffffffffffffffffffffffffffffffffffff166392eefe9b826040518263ffffffff1660e01b8152600401620001be91906200038a565b600060405180830381600087803b158015620001d957600080fd5b505af1158015620001ee573d6000803e3d6000fd5b5050505050565b80600360006101000a81548173ffffffffffffffffffffffffffffffffffffffff021916908373ffffffffffffffffffffffffffffffffffffffff16021790555060008054906101000a900473ffffffffffffffffffffffffffffffffffffffff1673ffffffffffffffffffffffffffffffffffffffff1663858ced35826040518263ffffffff1660e01b81526004016200029191906200038a565b600060405180830381600087803b158015620002ac57600080fd5b505af1158015620002c1573d6000803e3d6000fd5b5050505050565b600080fd5b600073ffffffffffffffffffffffffffffffffffffffff82169050919050565b6000620002fa82620002cd565b9050919050565b6200030c81620002ed565b81146200031857600080fd5b50565b6000815190506200032c8162000301565b92915050565b600080604083850312156200034c576200034b620002c8565b5b60006200035c858286016200031b565b92505060206200036f858286016200031b565b9150509250929050565b6200038481620002ed565b82525050565b6000602082019050620003a1600083018462000379565b92915050565b61092e80620003b76000396000f3fe60806040526004361061002d5760003560e01c80634420e48614610039578063af7d6ca31461006257610034565b3661003457005b600080fd5b34801561004557600080fd5b50610060600480360381019061005b919061062d565b61008b565b005b34801561006e57600080fd5b5061008960048036038101906100849190610690565b61023b565b005b6001600260003373ffffffffffffffffffffffffffffffffffffffff1673ffffffffffffffffffffffffffffffffffffffff16815260200190815260200160002060009054906101000a900463ffffffff1663ffffffff1614610123576040517f08c379a000000000000000000000000000000000000000000000000000000000815260040161011a9061072d565b60405180910390fd5b600073ffffffffffffffffffffffffffffffffffffffff16600360009054906101000a900473ffffffffffffffffffffffffffffffffffffffff1673ffffffffffffffffffffffffffffffffffffffff16036102275760008054906101000a900473ffffffffffffffffffffffffffffffffffffffff1673ffffffffffffffffffffffffffffffffffffffff166398575188600360009054906101000a900473ffffffffffffffffffffffffffffffffffffffff166040518263ffffffff1660e01b81526004016101f4919061075c565b600060405180830381600087803b15801561020e57600080fd5b505af1158015610222573d6000803e3d6000fd5b505050505b61023081610390565b61023861045f565b50565b600360009054906101000a900473ffffffffffffffffffffffffffffffffffffffff1673ffffffffffffffffffffffffffffffffffffffff163373ffffffffffffffffffffffffffffffffffffffff16146102cb576040517f08c379a00000000000000000000000000000000000000000000000000000000081526004016102c2906107c3565b60405180910390fd5b4781106102d757600080fd5b60008273ffffffffffffffffffffffffffffffffffffffff16826040516102fd90610814565b60006040518083038185875af1925050503d806000811461033a576040519150601f19603f3d011682016040523d82523d6000602084013e61033f565b606091505b5050905080610383576040517f08c379a000000000000000000000000000000000000000000000000000000000815260040161037a90610875565b60405180910390fd5b61038b61045f565b505050565b80600360006101000a81548173ffffffffffffffffffffffffffffffffffffffff021916908373ffffffffffffffffffffffffffffffffffffffff16021790555060008054906101000a900473ffffffffffffffffffffffffffffffffffffffff1673ffffffffffffffffffffffffffffffffffffffff1663858ced35826040518263ffffffff1660e01b815260040161042a919061075c565b600060405180830381600087803b15801561044457600080fd5b505af1158015610458573d6000803e3d6000fd5b5050505050565b66071afd498d0000600360009054906101000a900473ffffffffffffffffffffffffffffffffffffffff1673ffffffffffffffffffffffffffffffffffffffff163110156105c8576000600360009054906101000a900473ffffffffffffffffffffffffffffffffffffffff1673ffffffffffffffffffffffffffffffffffffffff16316611c37937e080006104f591906108c4565b90506000600360009054906101000a900473ffffffffffffffffffffffffffffffffffffffff1673ffffffffffffffffffffffffffffffffffffffff168260405161053f90610814565b60006040518083038185875af1925050503d806000811461057c576040519150601f19603f3d011682016040523d82523d6000602084013e610581565b606091505b50509050806105c5576040517f08c379a00000000000000000000000000000000000000000000000000000000081526004016105bc90610875565b60405180910390fd5b50505b565b600080fd5b600073ffffffffffffffffffffffffffffffffffffffff82169050919050565b60006105fa826105cf565b9050919050565b61060a816105ef565b811461061557600080fd5b50565b60008135905061062781610601565b92915050565b600060208284031215610643576106426105ca565b5b600061065184828501610618565b91505092915050565b6000819050919050565b61066d8161065a565b811461067857600080fd5b50565b60008135905061068a81610664565b92915050565b600080604083850312156106a7576106a66105ca565b5b60006106b585828601610618565b92505060206106c68582860161067b565b9150509250929050565b600082825260208201905092915050565b7f4e6f7420636f6e74726f6c6c6572000000000000000000000000000000000000600082015250565b6000610717600e836106d0565b9150610722826106e1565b602082019050919050565b600060208201905081810360008301526107468161070a565b9050919050565b610756816105ef565b82525050565b6000602082019050610771600083018461074d565b92915050565b7f4e6f742075736572000000000000000000000000000000000000000000000000600082015250565b60006107ad6008836106d0565b91506107b882610777565b602082019050919050565b600060208201905081810360008301526107dc816107a0565b9050919050565b600081905092915050565b50565b60006107fe6000836107e3565b9150610809826107ee565b600082019050919050565b600061081f826107f1565b9150819050919050565b7f4661696c656420746f2073656e64204574686572000000000000000000000000600082015250565b600061085f6014836106d0565b915061086a82610829565b602082019050919050565b6000602082019050818103600083015261088e81610852565b9050919050565b7f4e487b7100000000000000000000000000000000000000000000000000000000600052601160045260246000fd5b60006108cf8261065a565b91506108da8361065a565b9250828210156108ed576108ec610895565b5b82820390509291505056fea26469706673582212201d29c74a3c980f97d3212a30dcf885b5adef478af0c8af6a16bdade936e8e92064736f6c634300080d0033",
  "immutableReferences": {},
  "source": "// SPDX-License-Identifier: MIT\npragma solidity >=0.4.22 <0.9.0;\nimport \"./PocketWalletFactory.sol\";\n\ncontract PocketWallet {\n    \n    PocketWalletFactory _factory;\n    address[] _controllers;\n    mapping(address => uint32) private _controllersMap;\n\n    uint256 constant GAS_MIN_THRESHOLD = 0.002 ether;\n    uint256 constant GAS_SEND_MAX = 0.005 ether;\n\n    address _user;\n\n    constructor(address controller, address user) {\n        _factory = PocketWalletFactory(msg.sender);\n        _addControllerInternal(controller);\n        _setUserInternal(user);\n    }\n\n    // Modifier to check that the caller is a controller of\n    // the contract.\n    modifier onlyController() {\n        require(_controllersMap[msg.sender] == 1, \"Not controller\");\n        _;\n    }\n\n   // Modifier to check that the caller is the user of\n    // the contract.\n    modifier onlyUser() {\n        require(msg.sender == _user, \"Not user\");\n        _;\n    }\n\n    // Function for Ether deposits\n    receive() external payable {}\n\n    function _addControllerInternal(address controller) private {\n        _controllers.push(controller);\n        _controllersMap[controller] = 1;\n        _factory.setController(controller);\n    }\n\n    function register(address user) external onlyController {\n        \n        if(_user == address(0)) {\n            _factory.removeUser(_user);\n        }\n\n        _setUserInternal(user);\n        _sendGasToUserIfNeeded();\n    }\n\n    function _setUserInternal(address user) private {\n        _user  = user;\n        _factory.setUser(user);\n    }\n\n    function spend(address receipient, uint256 amount) external onlyUser {\n        require(amount < address(this).balance);\n\n        // send ether to receipient\n        (bool success, ) = receipient.call{value: amount}(\"\");\n        require(success, \"Failed to send Ether\");\n\n        _sendGasToUserIfNeeded();\n    }\n\n    // Send gas to the user to ensure he can always call the contract\n    function _sendGasToUserIfNeeded() private {\n        if(_user.balance < GAS_MIN_THRESHOLD) {\n            uint256 amount = GAS_SEND_MAX - _user.balance;\n\n            (bool success, ) = _user.call{value: amount}(\"\");\n            require(success, \"Failed to send Ether\");\n        }\n    }\n}\n",
  "sourcePath": "/home/exploit/my/truffle/pocket-wallet/contracts/PocketWallet.sol",
  "compiler": {
    "name": "solc",
    "version": "0.8.13+commit.abaa5c0e.Emscripten.clang"
  },
  "schemaVersion": "3.4.7",
  "updatedAt": "2022-06-20T14:02:56.358Z",
  "devdoc": {
    "kind": "dev",
    "methods": {},
    "version": 1
  },
  "userdoc": {
    "kind": "user",
    "methods": {},
    "version": 1
  }
}